S0110000456D6265646465645F312E73333749
S113000000200020290400005504000055040000CD
S11300105504000055040000550400005504000078
S11300205504000055040000550400005504000068
S11300305504000054040000550400007D390000FC
S113004055040000ED39000055040000550400007B
S11300505504000055040000193A0000550400003E
S1130060E10E0000EF0E00005504000055040000EE
S1130070B13200005504000055040000550400008E
S113008055040000BD0D0000690E00005504000079
S11300905504000010B5064C2378002B07D1054BFE
S11300A0002B02D0044800E000BF0123237010BDE0
S11300B0B000002000000000C0490000044B10B54F
S11300C0002B03D00349044800E000BF10BDC04624
S11300D000000000B4000020C0490000164B002BB3
S11300E000D1144B9D46402292029A1A9246002156
S11300F08B460F461348144A121A04F04BFA0F4B5E
S1130100002B00D098470E4B002B00D098470020BE
S1130110002104000D000D48002802D00C4800E026
S113012000BF04F013FA2000290003F08BFC04F054
S1130130F7F9C0460000080000200020000000007D
S113014000000000B0000020500300200000000068
S11301500000000080B500AF012304220D2104201B
S113016001F07EFEC046BD4680BD0000B0B5A6B01D
S113017002AF786008217B1880221A707B18002255
S11301805A700C23FA187918802300931300012263
S1130190D22000F005F900238C22BA18136027E05E
S11301A08C257B191B685B0001330C217A18D35C06
S11301B01B027A191268520079188A5C13431800DA
S11301C004F0E4F800220F4B03F06EFE03000C0071
S11301D0180021007B191B689B007A68D41804F06E
S11301E00FF9031C23607B191B6801337A19136010
S11301F08C23FB181B683F2BD2DDC046BD4624B0C0
S1130200B0BDC0460000D03F80B584B000AF786078
S11302100023FB6022E00023BB6015E0FB68DA00EA
S1130220BB68D3189B007A68D3181B68181C03F0AA
S11302301BFE0300180000F01FFD0E4B180000F019
S113024003FCBB680133BB60BB68072BE6DD0A4BCC
S1130250180000F019FCFB680133FB60FB68072BF6
S1130260D9DD064B180000F00FFCC046BD4604B0B3
S113027080BDC046D0450000D4450000D8450000EC
S113028080B584B000AF0200FB1D1A700823FB1870
S113029000221A70FB1D1B78002B04D00823FB18C6
S11302A010225A7003E00823FB1800225A70082316
S11302B0FB1802221900D22000F036F8C046BD46D1
S11302C004B080BD80B584B000AF0200FB1D1A707D
S11302D00C23FB1800221A70FB1D1B78002B06D080
S11302E0012B09D10C23FB1821225A7004E00C23A2
S11302F0FB1820225A70C0460C23FB180222190056
S1130300D22000F011F8C046BD4604B080BD000004
S113031080B500AF034B180002F02CFCC046BD466C
S113032080BDC04600000020B0B588B000AF396081
S11303301100FB1D021C1A70BB1D0A1C1A70FB1D48
S11303401B789AB208217B181A807B1801225A80E4
S11303507B183A685A60BB1D1B789AB27B181A81C5
S11303607B187A18DA607B1800221A820B4B1B6800
S11303701F257C197A181100180002F069FC03008B
S113038023707B191B785BB2002B01D0002300E0A3
S113039001231800BD4608B0B0BDC04600000020CF
S11303A0B0B58AB000AFB96011007B600F243B196F
S11303B0021C1A700E203B180A1C1A703B191B7879
S11303C09AB210217B181A807B1804225A807B1859
S11303D0BA685A603B181B789AB27B181A817B184A
S11303E07A68DA603823FB181B789AB27B181A8271
S11303F00C4B1B6827257C197A181100180002F091
S113040027FC030023707B191B785BB2002B04D0FC
S11304107B6800221A70002300E001231800BD4607
S11304200AB0B0BD00000020064880470649074ACC
S1130430074B9B1A03DD043BC858D050FBDCFFF785
S11304404DFE00009D050000CC4900000000002086
S1130450AC000020FEE7C04680B582B000AF00F0DB
S11304601FF803007B60084B5B680F2213407A6817
S1130470DA4013007B60054B7A681A607B681800C9
S1130480BD4602B080BDC04600800C402000002064
S113049080B500AF014B1800BD4680BD00366E012B
S11304A080B582B000AF334BDB6A334A13408022FD
S11304B05201934215D080225201934204D88022E3
S11304C01201934211D017E080229201934204D08A
S11304D08022D20493420CD00EE0284B1B687B6030
S11304E039E080231B027B6035E0254B1B687B6071
S11304F031E0244B7B602EE01E4BDA68E023DB0006
S1130500134080229200934218D08022920093429A
S113051006D8002B18D080225200934211D016E046
S1130520C0229200934206D08022D20093420ED180
S1130530154B7B600EE0154B7B600BE0144B7B602E
S113054008E0144B7B6005E0134B7B6002E0002362
S11305507B60C046C046074B1B689B0B07221340B9
S113056001331900786803F0F3FA03001800BD465C
S113057002B080BD00800C40003C00041C00002040
S11305801800002000366E01406F4001809FD500A6
S1130590C0D8A70040B56400804F120080B500AFFA
S11305A0024B034A9A60C046BD4680BD00ED00E0A0
S11305B00000000080B500AF80231B021800BD4678
S11305C080BD80B500AFFA239B001800BD4680BDF6
S11305D080B500AF024B1B681800BD4680BDC04605
S11305E01C00002080B582B000AF0200FB1D1A7011
S11305F0FB1D1B787F2B09D8FB1D1B781A001F23BA
S11306001A40044B012191400A001A60C046BD46BD
S113061002B080BD00E100E080B582B000AF786038
S113062039607B683A689A64C046BD4602B080BDB2
S113063080B582B000AF786039607B68DA6C3B6863
S11306401A437B68DA64C046BD4602B080BD80B5FB
S113065082B000AF78607B681B6C1800BD4602B0A6
S113066080BD80B582B000AF786039607B683A683D
S11306705A64C046BD4602B080BD000080B582B059
S113068000AF02003960FB1D1A70FB1D1B78002BA4
S11306900DD0FB1D1B78012B09D0FB1D1B78022BF1
S11306A005D0FB1D1B78032B01D0FB1D1B780122F9
S11306B03B689A4010000749FB1D1A781300DB00C1
S11306C09B189B00CB1810331860C046BD4602B07F
S11306D080BDC0460060004090B589B000AF78602E
S11306E00C0010001900FB1C221C1A70BB1C021CFD
S11306F01A707B1C0A1C1A70BC4B7A681A60082397
S1130700FB18BB4A13CA13C313CA13C3B94B012141
S1130710180000F0A5FEB54B1B68B74A934205D1FB
S1130720B64B0121180000F09BFE09E0AF4B1B689B
S1130730B34A934204D1B34B0121180000F090FE58
S1130740BB1C1B78002B09D00123042209210020A3
S113075001F086FB09210020FFF790FFA34B1B68E3
S1130760A54A934245D1FB1C1B78062B00D982E095
S11307709A00A54BD3181B689F46002301220B2126
S1130780042001F06DFB012304220A21042001F05E
S113079067FB70E0002301220A21022001F060FBC4
S11307A069E0002301220C21042001F059FB0123FC
S11307B004220D21042001F053FB5CE000230122FC
S11307C00821012001F04CFB012304220721012010
S11307D001F046FB4FE0002301220121022001F039
S11307E03FFB012304220021022001F039FBC04613
S11307F041E07E4B1B68824A93423CD1FB1C1B7830
S1130800052B38D89A00814BD3181B689F460023C8
S113081001220121022001F023FB012304220021F3
S1130820022001F01DFB26E0002301220621032003
S113083001F016FB012304220721032001F010FB21
S113084019E0002301220021002001F009FB01230B
S113085004220221052001F003FB0CE00023012205
S11308600221022001F0FCFA0123042201210220CA
S113087001F0F6FAC0465D4B1B680822BA18110055
S1130880180002F063F8FB1C1B78062B44D89A006E
S11308905F4BD3181B689F46544B1B685A6D534BD0
S11308A01B6803210A435A653EE0504B1B685A6D8E
S11308B04E4B1B680421FF310A435A6534E04B4B0D
S11308C01B685A6D494B1B6852490A435A652BE011
S11308D0464B1B685A6D454B1B684F490A435A6582
S11308E022E0424B1B685A6D404B1B684B490A433C
S11308F05A6519E03D4B1B685A6D3C4B1B684849CF
S11309000A435A6510E0394B1B685A6D374B1B6814
S113091044490A435A6507E0344B1B685A6D334B0C
S11309201B6803210A435A657B1C1B78002B41D0AA
S11309302E4B1B6804211800FFF77AFE2B4B1B6813
S113094001211800FFF774FE284B1B682A4A9342C2
S113095006D11120FFF746FE1220FFF743FE0AE0FE
S1130960224B1B68264A934205D10820FFF73AFE22
S11309700920FFF737FE2C4B180000F065F82B4BCD
S1130980180000F081F82A4B180000F03BF9294BBD
S1130990180000F049F9284B180000F059F9274BCA
S11309A0180000F071F8114B1B6801211800FFF7C3
S11309B058FE17E01C4B180000F046F8204B1800B6
S11309C000F062F81A4B180000F01CF9194B1800DB
S11309D000F02AF9184B180000F03AF9194B1800E6
S11309E000F052F8C046BD4609B090BDA0010020F9
S11309F0244700000082040000C0004000320400CC
S1130A0000C4004000420400A8470000C44700009E
S1130A10DC4700000302000003030000030400009D
S1130A2003050000030600000C4600001446000005
S1130A3044460000604600007C460000A0460000DA
S1130A40CC460000F846000080B584B000AF786062
S1130A500023FB600BE00B4B18687A68FB68D31823
S1130A601B78190002F015F8FB680133FB607A6803
S1130A70FB68D3181B78002BEDD1C046BD4604B0EB
S1130A8080BDC046A001002080B582B000AF786070
S1130A907B681800FFF7D8FF074B1B680D2118006F
S1130AA001F0F7FF044B1B680A21180001F0F1FF65
S1130AB0C046BD4602B080BDA001002080B582B012
S1130AC000AF78600A00FB1C1A70FB1C1B78062B15
S1130AD05BD89A00334BD3181B689F46324B1800DF
S1130AE0FFF7B2FF7B681800FFF7AEFF55E02F4B0E
S1130AF01800FFF7A9FF7B681800FFF7A5FF2A4B32
S1130B001800FFF7A1FF48E0294B1800FFF79CFFEE
S1130B107B681800FFF798FF234B1800FFF794FF3A
S1130B203BE0244B1800FFF78FFF7B681800FFF7AA
S1130B308BFF1D4B1800FFF787FF2EE01E4B18009C
S1130B40FFF782FF7B681800FFF77EFF164B180043
S1130B50FFF77AFF21E0194B1800FFF775FF7B6858
S1130B601800FFF771FF104B1800FFF76DFF14E03A
S1130B70134B1800FFF768FF7B681800FFF764FF4A
S1130B80094B1800FFF760FF07E0074B1800FFF759
S1130B905BFF7B681800FFF757FFC046BD4602B0F5
S1130BA080BDC046F84700000C4600003C470000EA
S1130BB0444700004C470000544700005C470000D5
S1130BC06447000080B582B000AF78600A00FB1C67
S1130BD01A70FB1C1A787B6811001800FFF76EFF6F
S1130BE0074B1B680D21180001F053FF044B1B68D1
S1130BF00A21180001F04DFFC046BD4602B080BD79
S1130C00A001002080B582B000AF7860054B1800C9
S1130C10FFF71AFF7B681800FFF736FFC046BD4692
S1130C2002B080BD6C47000080B582B000AF786030
S1130C30064B05211800FFF741FF7B6805211800CA
S1130C40FFF7C0FFC046BD4602B080BD7447000038
S1130C5080B582B000AF7860064B00211800FFF722
S1130C602DFF7B6800211800FFF7ACFFC046BD468E
S1130C7002B080BD7C47000080B586B000AF7860CC
S1130C807B68002B0EDA7B685B427B610D4B18009E
S1130C90FFF7DAFE7A690823FB181100180000F048
S1130CA013F806E07A680823FB181100180000F016
S1130CB00BF80823FB181800FFF7C6FEC046BD4614
S1130CC006B080BD8447000090B589B000AF78605D
S1130CD039603B68002B07D17B6830221A707B682F
S1130CE0013300221A7064E03B68FB611B23FB188C
S1130CF000221A701A23FB1800221A7025E0FB69DF
S1130D000A21180002F0AAFF0B007B617B69092B02
S1130D1004D87B69DBB23033D9B200E03F211B2019
S1130D203B181B780822BA18D1543B181A783B1880
S1130D3001321A70FA697B69D31AFB61FB690A21D3
S1130D40180002F005FF0300FB61FB69002BD6D1FC
S1130D501A23FB181B22BA1812781A701923FB18CD
S1130D6000221A7016E01A203B181B785A1E192408
S1130D703B191B787968CB18082179188A5C1A709A
S1130D803B181A783B18013A1A703B191A783B1928
S1130D9001321A701923FA181B23FB1812781B78D6
S1130DA09A42E0D31B23FB181B787A68D3180022DD
S1130DB01A70C046BD4609B090BD000090B583B01E
S1130DC000AF254B1B681800FFF741FC03007B6054
S1130DD0214B1B687A6811001800FFF71DFC1E4B9D
S1130DE019681E4B1C68621C1C4B1A60080001F039
S1130DF03FFE03001A001A4B1A55184B1B68013B9F
S1130E00174AD35CDBB20D2B07D0144B1B68013B94
S1130E10134AD35CDBB20C2B0BD1124B01221A7098
S1130E200E4B1B68013B0E4A0021D1540B4B002290
S1130E301A600A4B1B684D2B0AD90A4B01221A70FF
S1130E40064B1B68064A0021D154044B00221A6049
S1130E50C046BD4603B090BDA0010020D0000020D4
S1130E60A4010020CC00002080B582B000AF194B53
S1130E701B681800FFF7EBFB03007B60154B1B6836
S1130E807A6811001800FFF7C7FB7B680122134042
S1130E901BD0114B1B684F2B14D80F4B1B680F4AE8
S1130EA0D35CDBB2002B0DD00A4B18680A4B1B68CD
S1130EB0591C094A1160094AD35CDBB2190001F0DC
S1130EC0E8FD02E0044B00221A60C046BD4602B0B1
S1130ED080BDC046A0010020D4000020F401002001
S1130EE080B500AFFFF76AFFC046BD4680BD80B540
S1130EF000AFFFF7B9FFC046BD4680BD80B586B0E0
S1130F0000AFF860B9607A60FB681B687B610122FE
S1130F10BB689A401300DB431A007B691A407B6864
S1130F2001211940BB6899400B001A43FB681A6001
S1130F30C046BD4606B080BD80B582B000AF7860C3
S1130F4039607B681A683B68DA4013000122134059
S1130F501800BD4602B080BD80B584B000AF786093
S1130F607B68002B00D0C046786802F07DFE030049
S1130F70DBB21A001F239B1AFB60FB681800BD46F6
S1130F8004B080BD80B500AF034BDB6C1B0EDBB23D
S1130F901800BD4680BDC046B081E00F80B582B068
S1130FA000AF224B5A69E023DB00134080229200F9
S1130FB093421ED080229200934206D8002B26D062
S1130FC08022520093421FD027E0C0229200934215
S1130FD004D0E022D20093421CD01EE0FFF7D2FFDF
S1130FE00300122B02D9124B7B6019E0114B7B607A
S1130FF016E0FFF7C7FF0300122B02D90E4B7B60EC
S11310000EE00E4B7B600BE00D4B7B6008E00D4B5C
S11310107B6005E00C4B7B6002E000237B60C046F4
S11310207B681800BD4602B080BDC04600800C40FD
S1131030804F120040420F0040B56400C0CF6A00E8
S1131040C0D8A700809FD500406F400190B583B001
S113105000AFFC1C0E4B180000F0FAFA03002370DA
S1131060FB1C1B78072B06D0092B09D1FFF718FAB4
S113107003007B6007E0FFF791FF03007B6002E061
S113108000237B60C0467B681800BD4603B090BD5A
S113109006000E0080B584B000AF786039600F4B55
S11310A05B6807221340FB607B680D4A934202D8B9
S11310B00023FB6005E07B680A4A934201D80123C0
S11310C0FB60064B5B68072293431900034BFA68E5
S11310D00A435A60C046BD4604B080BD00000C40BF
S11310E00024F4000048E80180B582B000AF0D4B45
S11310F0DA6BFB1D511E8A411A700A4B0A4ADA63E5
S1131100FFF7C6F9030000211800FFF7C3FFFB1D1A
S11311101B78002B02D0034B0022DA63C046BD4685
S113112002B080BD00000C40711B000090B585B07A
S113113000AF786039600D4BDA6B0F243B19511EF8
S11311408A411A70094B0A4ADA633A687B681100CB
S11311501800FFF79FFF3B191B78002B02D0034BAD
S11311600022DA63C046BD4605B090BD00000C40C5
S1131170711B000080B584B000AF78600023BB60B1
S11311807B68364A934206D0354A934203D0354AA7
S1131190934200D000E0C0467B68180000F058FA83
S11311A00300FB607B682D4A93420CD02C4A934287
S11311B010D02C4A934200D013E02B4B9B6A03229D
S11311C01340FB600DE0284B9B6A9B0803221340ED
S11311D0FB6006E0244B9B6A1B0903221340FB605F
S11311E0C046FB68012B05D014D3022B07D0032B78
S11311F00AD02AE0FFF7DEF90300BB6029E0FFF71D
S1131200E7F90300BB6024E0FFF726F903005B085D
S1131210BB601EE00023BB607B68124A934203D08C
S11312207B680E4A934213D10F4B9A6A7B680D492F
S11312308B4201D1102300E01423DA40131E07D09F
S1131240FFF7BFF90300BB6002E00023BB6000E0CE
S1131250C046BB681800BD4604B080BD0300200032
S11312600400220002001E0000800C4080B582B001
S113127000AF7860074B5B6D0122134006D1C04676
S1131280044B1B6D7A681340FAD100E0C046BD469A
S113129002B080BD00800C4090B583B000AFFC1C50
S11312A0164B180000F0D4F903002370FB1C1B78C4
S11312B0032B0DD002DC022B05D017E0092B10D034
S11312C00A2B0AD012E0FFF783F903007B6010E0D9
S11312D0FFF770F903007B600BE0094B1B687B6030
S11312E007E0FFF7DDF803007B6002E000237B608A
S11312F0C0467B681800BD4603B090BD0733260086
S11313002400002080B500AFC046BD4680BD80B536
S113131000AFC046BD4680BD80B584B000AF7860E4
S113132039607B681B090F221340FB60FB68092BA3
S113133000D985E0FB689A00444BD3181B689F468C
S11313403B68002B00D0C046FFF7CEFE404B1B6825
S1131350404A134019003B68013B9A033C4B0A4343
S11313601A60FFF779F80300BB60BB68002118001E
S1131370FFF7DCFE65E03B68002B00D0C0463B680D
S11313801800FFF7E9FD03003B60314B9B680F2217
S1131390934319002E4B3A680A439A6051E03B6824
S11313A0002B00D0C046FFF79FFE3B681800FFF7F4
S11313B0D3FD03003B60264B5B680F229343190067
S11313C0234B3A680A435A60FFF746F80300BB60B0
S11313D0BB6800211800FFF7A9FE32E07B681E4AB3
S11313E0934200D012E00420FFF740FF3B6818004E
S11313F0FFF7B2FD03003B60154B9B6E0F22934336
S11314001900134B3A680A439A66C04619E07B6890
S1131410124A934200D012E04020FFF727FF3B68B6
S11314201800FFF799FD03003B60094B1B6F032273
S113143093431900064B3A680A431A67C04600E012
S1131440C046C046BD4604B080BDC0461448000036
S113145000800C40FF3FFEFF8006120090071A0038
S113146080B586B000AF78600A00FB1C1A700023B8
S11314703B617B681B0A0F2213400A2B34D89A0065
S11314801B4BD3181B689F461A4B7B6118E01A4B01
S11314907B6115E0194B7B6112E0194B7B610123E1
S11314A03B610DE0174B7B6110233B6108E0164B59
S11314B07B6180235B003B6102E0144B7B61C0468F
S11314C07B681B0B1F221340FB603B69002B03D07E
S11314D03B691800FFF7CAFEFB1C1A78F9687B69A0
S11314E01800FFF70BFD00E0C046BD4606B080BD06
S11314F03C48000040800C4008800C4044800C4074
S113150058800C4060800C4064800C4078800C4013
S113151080B584B000AF78607A68F8239B031340E9
S113152080225203934200D179E0802252039342F5
S113153013D88022920293423BD08022920293429B
S113154002D8002B23D074E08022D202934223D00D
S1131550E022120393425DD06BE0F02252039342E7
S11315602CD0F0225203934208D890225203934283
S11315702BD0D022520393423DD05AE080229203D2
S1131580934231D09822920393424DD051E0FEF71A
S113159087FF0300FB604FE0FEF782FF0300FB6060
S11315A0284B9B680F221340FA68DA401300FB6053
S11315B042E0FEF751FF0300FB603DE0224B1800C0
S11315C0FFF7D8FD0300FB6036E01F4B1800FFF760
S11315D0D1FD0300FB601B4B9B6E0F221340FA6886
S11315E0DA401300FB6027E0184B1800FFF7C2FD38
S11315F00300FB6020E0154B1800FFF7BBFD030060
S1131600FB60104B1B6F03221340FA68DA4013008F
S1131610FB6011E0FFF71AFD0300FB600CE0FFF72D
S1131620BDFC0300FB6007E0FFF736FE0300FB6030
S113163002E00023FB60C046FB681800BD4604B00E
S113164080BDC04600800C4002001E000300200044
S113165080B584B000AF78600F23FB1801221A70A4
S11316607B680F221340BB60BB68072B00D9CAE01C
S1131670BB689A006A4BD3181B689F46694BDB6AA8
S1131680694A134080225201934216D080225201AB
S1131690934204D880221201934213D01CE080228A
S11316A09201934204D08022D20493420FD013E0DB
S11316B00F23FB1802221A7013E00F23FB180322D6
S11316C01A700EE00F23FB1804221A7009E00F238E
S11316D0FB180B221A7004E00F23FB1805221A7062
S11316E0C04695E04F4B9B6A03221340022B08D05F
S11316F0032B0BD0012B0ED10F23FB1803221A70DE
S113170015E00F23FB1802221A7010E00F23FB18B8
S113171006221A700BE0434B9A6A80235B02134043
S113172004D00F23FB180C221A7000E0C0466FE0AF
S11317303C4B9B6A0C221340082B08D00C2B0BD07B
S1131740042B0ED10F23FB1803221A7015E00F236C
S1131750FB1802221A7010E00F23FB1806221A70DD
S11317600BE0304B9A6A80235B03134004D00F23B1
S1131770FB180C221A7000E0C04649E0294B9B6A12
S113178030221340102B02D0202B05D009E00F2368
S1131790FB1803221A7009E00F23FB1802221A70A7
S11317A004E00F23FB1801221A70C04630E00F2317
S11317B0FB1807221A702BE01A4BDA6AE023DB02CB
S11317C0134080229202934212D08022D20293428A
S11317D004D080225202934205D00EE00F23FB185E
S11317E00A221A700EE00F23FB1802221A7009E075
S11317F00F23FB1803221A7004E00F23FB180122A5
S11318001A70C04604E00F23FB1800221A70C04669
S11318100F23FB181B781800BD4604B080BDC046DA
S11318206848000000800C40003C000480B588B08B
S113183000AF78600A00FB1C1A700323FB611B23B2
S1131840FB1803221A7000233B617B680F221340AC
S1131850FB60FB68072B00D9F7E0FB689A007F4B1D
S1131860D3181B689F46FB1C1B780C2B00D9EEE099
S11318709A007B4BD3181B689F460423FB611B23F0
S1131880FB1800221A701BE00323FB611B23FB18C7
S113189001221A7014E00223FB611B23FB180222AD
S11318A01A700DE00123FB611B23FB1803221A703D
S11318B006E00523FB611B23FB1805221A70C046B2
S11318C01B23FB181B7801220121180000F0D4F817
S11318D0FFF70AFCFFF716FD624BFA695A62FEF73E
S11318E0BBFD0300BB60BB6800211800FFF71EFCB2
S11318F0FFF70DFDAEE0FB1C1B780C2B00D9A8E014
S11319009A00594BD3181B689F4600237B611DE046
S113191001220121002000F0AFF802237B6115E0D1
S113192001220121012000F0A7F801237B610DE0D1
S11319304E4B012202211800FFF7E0FA03237B61DA
S113194004E000237B6101233B61C046FB68022B5A
S11319500CD1444B9B6A464A1A407B691A431100D6
S11319603B691A043F4B0A439A6273E03D4B9B6AFE
S1131970404A1A407B699B001A4311003B691A05CF
S1131980384B0A439A6265E0FB1C1B78022B07D094
S1131990032B0DD0012B00D05CE000237B610FE012
S11319A001220121002000F067F802237B6107E097
S11319B001220121012000F05FF801237B61C04670
S11319C0284B9B6A3022934319007B691A01254BEB
S11319D00A439A623EE0FB1C1B78032B14D00A2BAB
S11319E022D0022B00D035E001220121002000F09A
S11319F043F81C4B40225A62C0461A4BDA6A8023D1
S1131A005B021340F9D01FE001220121012000F004
S1131A1033F8144B60225A62C046124BDA6A8023B0
S1131A209B021340F9D00FE001220121052000F0B0
S1131A3023F80C4B80225A62C0460A4BDA6A802390
S1131A40DB021340F9D0C04604E0C04602E0C046C1
S1131A5000E0C046BD4608B080BDC04688480000CE
S1131A60A848000000800C40DC48000040800C4086
S1131A70FCFFFEFFF3FFEFFF90B587B000AF04005B
S1131A8008001100FB1D221C1A70BB1D021C1A70D9
S1131A907B1D0A1C1A70FB1D1B78052B4BD89A0062
S1131AA0274BD3181B689F4601233B610223FB602D
S1131AB001237B6126E004233B610823FB600323AD
S1131AC07B611FE010233B612023FB6005237B61C6
S1131AD018E040233B618023FB6007237B6111E016
S1131AE080235B003B6180239B00FB6009237B61B7
S1131AF008E08023DB003B6180231B01FB6016238D
S1131B007B61C046BB1D1B78002B10D00D4B3A697E
S1131B101A627B1D1B78002B0ED0C0467B690A4AD3
S1131B2019001000FFF708FA031EF7D004E0054B74
S1131B30FA681A6200E0C046BD4607B090BDC046D0
S1131B401049000000800C402C800C4080B582B00D
S1131B5000AFEFF310833B603B687B6072B67B6839
S1131B601800BD4602B080BD80B582B000AF786079
S1131B707B68002B00D162B6C046BD4602B080BD72
S1131B8080B582B000AFEFF310833B603B687B60AD
S1131B9072B67B681800BD4602B080BD80B582B0C5
S1131BA000AF78607B68002B00D162B6C046BD46AA
S1131BB002B080BD80B500AFFEF74EFCC046BD4606
S1131BC080BD000080B500AF034A84230021D150BA
S1131BD0C046BD4680BDC04600800C4080B500AF05
S1131BE0034A84230349D150C046BD4680BDC04644
S1131BF000800C400E58000080B584B000AF020095
S1131C00FB1D1A70FB1D1B78002B0BD1304BDA6ABD
S1131C10304B1A601120FFF71BFD03001A002E4BF6
S1131C201A7050E02A4A8423D35801221340FB60DF
S1131C30FFF7D4FF0023BB60264B1B68012213402F
S1131C40BA681343BB60234B1B6810221340BA6865
S1131C501343BB601F4B1B6840221340BA681343F5
S1131C60BB601C4B1B6804221340BA681343BB605F
S1131C70184B1A6880235B001340BA681343BB6097
S1131C80144B1B68DA0A8023DB001340BA68134341
S1131C90BB600F4BBA681A620F4B1B78052B05D03B
S1131CA00D4B1B7819001120FFF7C0FD094B1B6871
S1131CB00122134002D1064B02221A62FB68002B58
S1131CC001D0FFF77FFFC046BD4604B080BDC046CB
S1131CD000800C40D8000020DC00002080B500AF5C
S1131CE001231800BD4680BD80B500AFC046BD4687
S1131CF080BD80B500AFC046BD4680BDB0B586B0DE
S1131D0000AF0200FB1D1A70FB1D1B78002B02D0D4
S1131D100020FFF771FF214B1A69204B04210A436D
S1131D201A6117257C19FFF7D9FF030023707B196B
S1131D301B78002B0BD01A4B1B681A4A1A40082038
S1131D403B181A6016493B181B6880228B50FFF71A
S1131D50CBFFFFF7FBFE03003B6102F031FC3B6964
S1131D601800FFF701FFFFF7C4FF1723FB181B78C8
S1131D70002B04D00A4A0823FB181B681360FB1DC0
S1131D801B78002B03D00120FFF736FF01E0FFF79B
S1131D9011FFC046BD4606B0B0BDC04600ED00E030
S1131DA000E100E094A3F7FF80B582B000AF020029
S1131DB03960FB1D1A70FB1D1B78002B0DD0FB1D19
S1131DC01B78012B09D0FB1D1B78022B05D0FB1DB2
S1131DD01B78032B01D0FB1D1B7801223B689A4022
S1131DE010000749FB1D1A781300DB009B189B00A9
S1131DF0CB1814331860C046BD4602B080BDC0463F
S1131E000060004080B582B000AF02003960FB1D65
S1131E101A70FB1D1B78002B0DD0FB1D1B78012BAA
S1131E2009D0FB1D1B78022B05D0FB1D1B78032B4F
S1131E3001D0FB1D1B7801223B689A401000074922
S1131E40FB1D1A781300DB009B189B00CB18103382
S1131E501860C046BD4602B080BDC0460060004068
S1131E6090B585B000AFB96011007B600F243B19B9
S1131E70021C1A700E23FB180A1C1A703B191B78DB
S1131E80002B11D00F23FB181B78012B0CD00F2330
S1131E90FB181B78022B07D00F23FB181B78032B8E
S1131EA002D00F23FB181B780E23FB181B78002B82
S1131EB013D07B68002B08D0BA680F23FB181B785B
S1131EC011001800FFF79EFF07E0BA680F23FB1804
S1131ED01B7811001800FFF767FFBB68072B25D894
S1131EE036490F243B191A781300DB009B189B001A
S1131EF0CB1804331B68BA6892000F2191400A0082
S1131F00D24313400E22BA181178BA689200914055
S1131F100A00110029483A19127819431300DB000A
S1131F209B189B00C318043319602AE023490F242B
S1131F303B191A781300DB009B189B00CB1808335D
S1131F401B68BA681E498C46624492000F21914076
S1131F500A00D24313400E22BA181178BA681848FE
S1131F6084466244920091400A00110013483A19D1
S1131F70127819431300DB009B189B00C318083325
S1131F8019600E23FB181B78002B13D17B68002BE0
S1131F9008D0BA680F23FB181B7811001800FFF74C
S1131FA031FF07E0BA680F23FB181B7811001800F3
S1131FB0FFF7FAFEC046BD4605B090BD0060004084
S1131FC0F8FFFF3F80B582B000AF786039607B686E
S1131FD03A681A63C046BD4602B080BD80B586B07B
S1131FE000AFF860B9607A60FB681B687B6101220E
S1131FF0BB689A401300DB431A007B691A407B6874
S113200001211940BB6899400B001A43FB681A6010
S1132010C046BD4606B080BD80B584B000AFF86050
S1132020B9607A60FB681B68BA68D2431A407B685F
S11320301A43FB681A60C046BD4604B080BD80B533
S113204082B000AF786001E07B68DB697B68DA68A6
S113205080235B001340F7D1C046BD4602B080BD6B
S113206080B588B000AFF860B9607A601A00FB1CD4
S11320701A707B68002B00D176E0FB1CFA1C1278E6
S113208003210A401A70FB681B683A4A1A40FB682D
S11320901A60F868FB1C1B781B021A00C0239B0003
S11320A01900FFF7B9FFBB68002B09D1FB68324A5E
S11320B0934205D1314B1800FFF72AFA0300BB60A5
S11320C001235B42BB61FB681B680222134011D0F1
S11320D0FB1C1B78012B07D0022B08D0002B00D04F
S11320E01AE0274BBB6117E0264BBB6114E0264B7B
S11320F0BB6111E0FB1C1B78012B07D0022B08D01D
S1132100002B00D008E0214BBB6105E0204BBB61F4
S113211002E0204BBB61C046FB1C1B781E4AD35C0B
S11321207B617B697A6853433B613B69002B1DD01B
S11321307B689B00BA68D21A3B69D318013B3969A2
S1132140180001F005FD0300013BFB61FB681B68FF
S11321500222134004D0FB69002B01D10123FB614F
S1132160FA69FB681A6102E0C04600E0C046BD4659
S113217008B080BDFFFCFFFF00A0004000B20400D7
S113218040164000C0D8A7008050740180841E000F
S113219040548900002D31012849000080B582B0E7
S11321A000AF78600A00FB1C1A707868FB1C1B786F
S11321B01A000021FFF712FFC046BD4602B080BDE1
S11321C080B582B000AF786039607B6800225A63C2
S11321D0114A7B6811001800FFF7F4FE78683B6829
S11321E05B7801225340DBB21A000121FFF7F6FEAF
S11321F03B6859683B689A683B681B7B7868FFF7C3
S11322002FFF3B681A787B6811001800FFF7C6FFA0
S1132210C046BD4602B080BDFFFF010080B588B056
S113222000AF78607B68C74A934205D1C64BBB6157
S1132230BB699B687B6102E004235B420FE27B681D
S11322409B6A3B613A69C023DB00134014D03A69AE
S113225080239B00134003D0BB69FD225A7007E022
S11322603A698023DB00134002D0BB69FE225A7016
S1132270BB6909221A70DDE1BB691B78082B00D900
S1132280C4E19A00B14BD3181B689F467B695B88F5
S11322901A00102313400AD07B691B881B0A9BB2C7
S11322A01A0006231340F0221343FB610FE07B69FD
S11322B01B881A00FE231340FB617B695B881A00AC
S11322C00223134003D0FB6901221343FB61BB6962
S11322D001221A707B68FA695A627B6801225A608B
S11322E0A8E13B69802213400ED07B68802118004E
S11322F0FFF768FEBB69FF225A70BB6908221A7097
S11323007B6802225A608AE13B694022134000D173
S113231085E17B6840211800FFF754FE7B695B88E8
S11323201A00102313400AD0BB6902221A707B6979
S11323301B881A00FF231A407B685A626FE17B698D
S11323405B881A000223134010D0BB6907221A705D
S1132350BB691B797A69DB00D31808331B88012B0E
S113236000D05CE17B6808225A6058E1BB69052211
S11323701A7053E13B69802213400ED07B688021A0
S11323801800FFF71FFEBB69FF225A70BB690822C1
S11323901A707B6802225A6043E13B694022134071
S11323A000D13EE17B6840211800FFF70BFE7B69FA
S11323B05B881A000223134003D0BB6903221A70FE
S11323C02CE1BB6905221A7028E17B695B881A003D
S11323D0102313400AD07B691B881B0A9BB21A0086
S11323E006231340F0221343FB6105E07B691B883D
S11323F01A00FE231340FB617B695B881A000423E7
S1132400134003D0FB6901221343FB61BB6904221F
S11324101A707B6801225A607B68FA695A6209E182
S11324203B69802213400ED07B6880211800FFF79F
S1132430C9FDBB69FF225A70BB6908221A707B6808
S113244002225A60EFE03B694022134000D1EAE0E7
S11324507B6840211800FFF7B5FD7B695B881A0093
S11324600423134003D0BB6907221A70DBE0BB6965
S113247005221A70D2E0BB695A88BB691B79796955
S1132480DB00CB1808331B889A4224D3BB69002293
S11324905A80BB691B790133DAB2BB691A717B6953
S11324A05B881A000423134003D0BB6903221A700B
S11324B0B4E07B695B881A000123134004D1BB6933
S11324C01B79012B00D8A8E0BB6908221A707B682D
S11324D002225A60AEE0BB691B797A69DB00D3182B
S11324E004331A68BB695B88591C88B2B96948808F
S11324F0D3181B781A007B685A62BB6906221A70CB
S113250098E03B69802213400ED07B68802118003C
S1132510FFF758FDBB69FF225A70BB6908221A7085
S11325207B6802225A6080E03B694022134000D15C
S11325307BE07B6840211800FFF744FDBB6905225E
S11325401A706BE000A00040E00000202C4900005D
S11325503B692022134000D169E0BB691B797A6989
S1132560DB00D31808331B88FB607B68DA690B2314
S1132570FB181A70BB695B881A00FB68934211D977
S1132580BB691B797A69DB00D31804331A68BB6909
S11325905B88591C88B2B9694880D3180B22BA18D1
S11325A012781A70BB695B881A00FB6893420CD8D6
S11325B0FB68012B02D17B6808225A60BB690822A0
S11325C01A707B6802225A6031E07B6804225A60E8
S11325D0FB68012B2BD9BB695B881A00FB68013BA4
S11325E09A4224D17B6808225A6020E03A69802309
S11325F05B0013401DD080235A007B681100180033
S1132600FFF7E0FCBB6909221A7012E0BB69FB22E8
S11326105A70BB6909221A700CE0C0460FE6C04626
S113262008E0C04606E0C04604E0C04602E0C046FA
S113263000E0C046BB691B78092B0BD17B680022E4
S11326405A63BB695B785BB2012B05D1BB6900227D
S11326505A7001E0012302E0BB695B785BB21800A9
S1132660BD4608B080BDC04680B584B000AF786078
S113267039607B68294A934207D1294BFB607B6808
S11326809B680122134006D002E004235B4241E030
S11326907B6820225A603B685B881A00022313403F
S11326A003D03B681B89002B09D03B685B881A0068
S11326B00423134006D03B681B8A002B02D1042359
S11326C05B4227E0FB6800221A70FB6801225A7003
S11326D0FB6800225A80FB6800221A71FB683A6882
S11326E09A607B68C0225A607B681800FFF7A7FCD9
S11326F00C4A7B6811001800FFF764FC7B685B6B75
S1132700FC22D2001A437B685A637B681800FFF7E7
S113271085FD03001800BD4604B080BD00A0004044
S1132720E0000020FFFF010080B586B000AFF86034
S1132730B9607A60FB681B687B610122BB689A40C0
S11327401300DB431A007B691A407B68012119409E
S1132750BB6899400B001A43FB681A60C046BD462B
S113276006B080BD80B584B000AF78607B68002B74
S113277002D0012B04D007E0074B9B68FB6006E006
S1132780054BDB68FB6002E00023FB60C046FB688E
S11327901800BD4604B080BD0000084080B584B078
S11327A000AF786039607B68002B02D0012B03D026
S11327B008E0064BFB6002E0054BFB60C046FB688B
S11327C03A681A60BD4604B080BDC046080008409F
S11327D00C00084080B582B000AF0200FB1D1A70E7
S11327E0FB1D1B7804481A000021FFF79DFFC0461B
S11327F0BD4602B080BDC0460000084080B584B02C
S113280000AF78607B681B78002B02D00123FB604B
S113281001E00023FB607B685B78002B03D0FB683E
S113282002221343FB607B689B78002B03D0FB6878
S113283004221343FB60034BFA681A60C046BD468A
S113284004B080BD0000084080B500AF0020FFF751
S1132850C1FF0120FFF7BEFFC046BD4680BD80B565
S113286082B000AF78600A00FB1C1A70FB1C1B7856
S113287010221343DBB21A007B689A65C046BD463A
S113288002B080BD80B586B000AFF860B9607A60F0
S11328901A00FB1C1A70BB68002B05D1294B1800C9
S11328A0FEF736FE0300BB60FB1C1B78202B0BD00D
S11328B002DC002B05D041E0402B08D0602B0ED069
S11328C03CE010237B610DE008237B610AE0BB68D8
S11328D00621180001F03CF906237B6102E0042381
S11328E07B61C046BB685A017B6979684B435B08CE
S11328F0D3183B617B697A6853431900386901F046
S113290027F903003B613B69203B3B613B69DB00EA
S11329103B613B690C4A13403B61FB681B686022C6
S113292093431A00FB681A60FB681A68FB1C1B7847
S11329301A43FB681A60FB683A695A61BD4606B0DF
S113294080BDC04640810400F8FF1F0080B582B0FE
S113295000AF786039607B68214AC0467B68180004
S113296000F040F83B689B7C002B06D07B681B681A
S11329708022D2051A437B681A603B68DB7C002BFB
S113298006D03B681A7D7B6811001800FFF767FFCB
S11329903B685B7B1A003B681B8A13433A68D28905
S11329A01A437B685A603B6859683B689A683B687D
S11329B01B7B7868FFF766FF3B685B7D002B06D0C6
S11329C07B681B68802252021A437B681A603B684A
S11329D01B781A007B68DA60C046BD4602B080BD31
S11329E000C0004080B582B000AF78607B681B4AAD
S11329F0C0467B681A4ADA607B6800221A607B68EA
S1132A00184A5A607B6800229A607B6800225A61E7
S1132A107B680022DA647B68134A9A647B6800222C
S1132A205A657B680D4A934203D07B680F4A9342F0
S1132A3002D17B6800221A657B6800229A657B6854
S1132A40064A934203D07B68084A934202D17B68CA
S1132A500022DA65C046BD4602B080BD00C0004019
S1132A60AA0E000005100000F91F000000C4004079
S1132A7080B582B000AF7860C0467B681B69802255
S1132A801340FAD07B68DB69DBB21800BD4602B0A4
S1132A9080BD80B582B000AF78600A00FB1C1A705C
S1132AA0C0467B681B6940221340FAD0FB1C1A788D
S1132AB07B685A63C046BD4602B080BD80B582B013
S1132AC000AF02003960FB1D1A70FB1D1B78002B40
S1132AD00DD0FB1D1B78012B09D0FB1D1B78022B8D
S1132AE005D0FB1D1B78032B01D0FB1D1B78012295
S1132AF03B689A4010000749FB1D1A781300DB005D
S1132B009B189B00CB1814331860C046BD4602B016
S1132B1080BDC0460060004080B582B000AF0200B6
S1132B203960FB1D1A70FB1D1B78002B0DD0FB1D9B
S1132B301B78012B09D0FB1D1B78022B05D0FB1D34
S1132B401B78032B01D0FB1D1B7801223B689A40A4
S1132B5010000749FB1D1A781300DB009B189B002B
S1132B60CB1810331860C046BD4602B080BDC046C5
S1132B700060004080B588B000AF7860314B01211F
S1132B801800FEF76DFC7B681B682F4A934255D1F1
S1132B902E4BBB61BB6901211800FEF761FC7B6809
S1132BA018797B685B79190001230A22FFF758F929
S1132BB07B6898797B68DB79190001230A22FFF787
S1132BC04FF90023FB6112E07B681A797B685B791B
S1132BD019001000FFF7A0FF7B681A797B685B7906
S1132BE019001000FFF76AFFFB690133FB61FB6901
S1132BF0082BE9DD7B681B7A1B0219007B681B68C4
S1132C0003220A439A6308217B1801221A707B1855
S1132C1001225A707B681A697B189A607B68DA68AB
S1132C207B185A607B681A7D7B181A737B681B6853
S1132C307A1811001800FFF7C3FA00E0C046BD4639
S1132C4008B080BD4081040000A0004000B2040030
S1132C5090B585B000AF78603960144BBB600F232A
S1132C60FC183A687B6811001800FFF7FDFC0300AC
S1132C70237007E00F23FC187B681800FFF7CEFAD7
S1132C80030023700F23FB181B785BB2012B04D1C4
S1132C90BB685A1EBA60002BECD10F23FB181B78BB
S1132CA05BB21800BD4605B090BDC046E093040079
S1132CB080B582B000AF0200FB1D1A70FB1D1B78AB
S1132CC07F2B09D8FB1D1B781A001F231A40044BC5
S1132CD0012191400A001A60C046BD4602B080BD81
S1132CE000E100E080B582B000AF0200FB1D1A7065
S1132CF0FB1D1B787F2B0AD8FB1D1B781A001F2392
S1132D001340054901229A40C0235B00CA50C046C3
S1132D10BD4602B080BDC04600E100E080B500AF12
S1132D20024B5B681800BD4680BDC04600000840E9
S1132D3080B582B000AF7860034B7A689A61C04670
S1132D40BD4602B080BDC0460000084080B582B0D8
S1132D5000AF7860054BDA697B68D943034B0A40BE
S1132D60DA61C046BD4602B080BDC04600000840DE
S1132D7080B582B000AF7860044BD969034B7A68A0
S1132D800A43DA61C046BD4602B080BD0000084077
S1132D9080B582B000AF054BDB697B60034B1B69D8
S1132DA07A6813401800BD4602B080BD0000084098
S1132DB080B586B000AF786000237B6100233B615F
S1132DC0214B1B7801225340DBB2002B01D01F4B57
S1132DD035E0FEF7D5FE0300FB6002E07B690133BA
S1132DE07B617B69032B0ADC19497A6913009B0018
S1132DF09B18DB00CB181E331B78002BEED17B69AC
S1132E00042B02D1134B3B6114E07B68002B0FD0E1
S1132E100F497A6913009B009B18DB00CB181E3303
S1132E2001221A707A697B681A6000233B6101E011
S1132E30094B3B61FB681800FEF7B0FE3B691800C4
S1132E40BD4606B080BDC0469A010020061000F0C1
S1132E50F0000020011000F0041000F080B500AF75
S1132E60204B1B78002B01D0002338E01E4B01219E
S1132E701800FEF7F5FA1D4B02211800FEF7D6FCE8
S1132E801B4B01211800FEF747FA194B01211800CA
S1132E90FEF7E6FA174B1800FFF7B0FC0720FFF720
S1132EA055FF0720FFF744FFFFF7CEFC0C20FFF788
S1132EB019FF0C20FFF7FCFE0F4BA0220021180085
S1132EC001F068FB0D4B00221A700D4B00221A70A2
S1132ED00C4B00221A60034B01221A7000231800C5
S1132EE0BD4680BD9A0100200023020002001E009E
S1132EF08006120050490000F000002098010020D4
S1132F009901002094010020B0B592B000AFF8619F
S1132F107A613B610B2310229446BC4463440A1C2F
S1132F201A700023FB63D74B1B7801225340DBB29A
S1132F30002B01D0D44BA1E1FB69032B01D9D34B66
S1132F409CE1FEF71DFE0300BB63D149FA6913003F
S1132F509B009B18DB00CB181E331B7801225340C7
S1132F60DBB2002B05D0BB6B1800FEF717FEC94B74
S1132F7084E17B69002B0DD13B69002B04D0B96D32
S1132F80FA693B6910009847BB6B1800FEF706FE10
S1132F90002373E1FFF7C2FE03003B64BC49FA69F6
S1132FA013009B009B18DB00CB1818333A691A6096
S1132FB07B693B6000237B6039687A680B005B0C9B
S1132FC01000C5031D430B00DC03FA22520000234A
S1132FD02000290080185941FA229200002300F0B1
S1132FE061FE03000C0019002200A94CF8690300DB
S1132FF09B001B18DB00E318083319605A600B238D
S113300010229446BC4463441B78012B2CD17A696A
S113301013005B019B1A9B009B18DB0018009C4962
S1133020FA6913009B009B18DB00CB1808335C681B
S11330301B681A0013001B019B1A5B00C31A1800BB
S11330409349FA6913009B009B18DB00CB181033DB
S113305018608F49FA6913009B009B18DB00CB189A
S113306014330F221A6018E08949FA6913009B008F
S11330709B18DB00CB1808335C681B6801214942AC
S1133080CA17C9186241824CF86903009B001B18D7
S1133090DB00E318083319605A607D49FA691300AC
S11330A09B009B18DB00CB1808335C681B6801216C
S11330B00022C9186241764CF86903009B001B1872
S11330C0DB00E31819605A607149FA6913009B0028
S11330D09B18DB00CB181C3301221A706C49FA6967
S11330E013009B009B18DB00CB181F330B2210210D
S11330F08C46BC44624412781A706549FA6913001C
S11331009B009B18DB00CB182033BA6D1A60624B0E
S11331101B78002B05D0BB6B1800FEF73FFD002386
S1133120ACE05E4B1B68013304D05C4B1B685A1C3B
S11331305A4B1A605A4B1B7801225340DBB2002BC6
S113314036D03B6C1B021A0A564B1A600220FFF75A
S1133150EFFD4F49FA6913009B009B18DB00CB1865
S11331605C681B68BB62FC624F4B7B627B6ABB6022
S11331700023FB60BB6AFC6AFA68944205D8FA68CB
S1133180944204D1BA68934201D9BB68FC683B629B
S11331903A6C3B6AD3181B021B0A19000020FFF784
S11331A0FDFA0220FFF7E4FD3D4B01221A7057E0BF
S11331B03A4B1B68012B53D13549FA6913009B0024
S11331C09B18DB00CB181C3300221A700220FFF777
S11331D0BDFD3B6C1A02334B1B681B02D31A1B0A3E
S11331E07B647B6C314A934201D100237B647B6C0A
S11331F0180000F0BFF800F031FAFB6B002B09D186
S11332002349FA6913009B009B18DB00CB181C337D
S113321001221A70FB6B0133FB633B6C180000F056
S11332204FFAFFF77BFD03003B643B6C1A021D4B16
S11332301B681B02D31A1B0A7B640020FFF792FA57
S113324003001A02174B1B681B02D31A1B0A7B6369
S1133250134B1B78002B03D07A6C7B6B9A42B5D24C
S11332600E4B1B68002B04D00C4B1B685A1E0B4BD7
S11332701A60BB6B1800FEF791FC00231800BD46D2
S113328012B0B0BD9A010020061000F0021000F048
S1133290F0000020031000F09801002094010020A9
S11332A099010020900100209BFFFF00FFFFFF0019
S11332B080B586B000AFFEF763FC03003B61FFF707
S11332C067FD0300FB60FB68032293431800FFF7CC
S11332D02FFDFB68022213403DD0234B01221A70BC
S11332E0FFF71CFD03007B610220FFF72FFD7B69C4
S11332F01A021E4B1B681B02D31A1B0ABB60BB6855
S1133300180000F037F800F0A9F97B69180000F004
S1133310D7F9FFF703FD03007B617B691A02134BA6
S11333201B681B02D31A1B0ABB600020FFF71AFAA2
S113333003001A020D4B1B681B02D31A1B0A7B6085
S11333400B4B1B78002B03D0BA687B689A42CBD214
S1133350054B00221A703B691800FEF71FFCC0469B
S1133360BD4606B080BDC0469801002090010020F3
S113337099010020F0B58DB000AFF8610023FB6225
S113338062E1B549FA6A13009B009B18DB00CB1875
S11333901D3300221A70B049FA6A13009B009B186F
S11333A0DB00CB181C331B78002B00D149E1AA4960
S11333B0FA6A13009B009B18DB00CB185C681B683F
S11333C0FA69150000221600B44202D81ED1AB429D
S11333D01CD9A149FA6A13009B009B18DB00CB1887
S11333E05C681B68FA693A6100227A6139697A6912
S11333F05B1A944119002200974CF86A03009B0061
S11334001B18DB00E31819605A601AE19249FA6A42
S113341013009B009B18DB00CB181F331B78002B79
S11334200AD18D49FA6A13009B009B18DB00CB1864
S11334301C3300221A70EFE0FB69BB600023FB60C1
S11334408549FA6A13009B009B18DB00CB185C6863
S11334501B68B968FA68C91AA2410B0014003B62E0
S11334607C627D49FA6A13009B009B18DB00CB1831
S113347008335C681B683B607C607749FA6A130018
S11334809B009B18DB00CB1808335C681B68386A08
S1133490796A1A00230000F005FC1C001300396847
S11334A07A68C91AA2416C4CF86A03009B001B1885
S11334B0DB00E31819605A606749FA6A13009B003D
S11334C09B18DB00CB1810331B68002B52DD6249BC
S11334D0FA6A13009B009B18DB00CB18143319689D
S11334E05D48FA6A13009B009B18DB00C318103375
S11334F01B68C9185848FA6A13009B009B18DB0024
S1133500C318143319605449FA6A13009B009B18BA
S1133510DB00CB1814331B681D2B00D87CE04E490C
S1133520FA6A13009B009B18DB00CB185C681B68CD
S113353001210022C9186241474CF86A03009B002C
S11335401B18DB00E31819605A604349FA6A130038
S11335509B009B18DB00CB1814331B681E3B19001F
S11335603D48FA6A13009B009B18DB00C318143310
S1133570196051E03849FA6A13009B009B18DB007C
S1133580CB18143319683448FA6A13009B009B184B
S1133590DB00C31810331B68C91A2F48FA6A1300DA
S11335A09B009B18DB00C318143319602A49FA6A7C
S11335B013009B009B18DB00CB1814331B681D2BD6
S11335C02AD92549FA6A13009B009B18DB00CB1803
S11335D05C681B6801214942CA17C91862411E4C24
S11335E0F86A03009B001B18DB00E31819605A609B
S11335F01949FA6A13009B009B18DB00CB1814339B
S11336001B681E3B19001448FA6A13009B009B18A0
S1133610DB00C318143319600F49FA6A13009B00C6
S11336209B18DB00CB1818331B68002B09D00A4900
S1133630FA6A13009B009B18DB00CB181D33012290
S11336401A70FB6A0133FB62FB6A032B00DC98E609
S1133650C046BD460DB0F0BDF000002090B583B06B
S113366000AF00237B6022E014497A6813009B00BA
S11336709B18DB00CB181D331B78002B14D00F498B
S11336807A6813009B009B18DB00CB1818331C6866
S113369078680A497A6813009B009B18DB00CB18F2
S11336A020331B681900A0477B6801337B607B686B
S11336B0032BD9DDC046BD4603B090BDF000002009
S11336C090B58BB000AF786001235B42DC17BB611F
S11336D0FC6100237B622AE0394C786A03009B007A
S11336E01B18DB00E3181C331B78002B1CD0344C54
S11336F0786A03009B001B18DB00E3185C681B68F6
S1133700F869A04205D8F869A0420DD1B869984279
S11337100AD92B4C786A03009B001B18DB00E318C2
S11337205C681B68BB61FC617B6A01337B627B6AFA
S1133730032BD1DD234B00201870BB69013303D167
S1133740FB69013300D136E0BB69FC693B617C61F4
S11337501D4BFB60FB68190000231A003B697C6960
S1133760944202D803D18B4201D90B001400BB61EF
S1133770FC61164B1B7801225340DBB2002B05D0B1
S11337807B681B021A0A124B1A6002E0104B7A681B
S11337901A600220FFF7CCFABA697B68D3181B02BF
S11337A01B0A19000020FEF7F9FF064B01221A70CC
S11337B00220FFF7DDFAC046BD460BB090BDC046FF
S11337C0F0000020990100209BFFFF0098010020D9
S11337D09001002090B583B000AF02003960FB1D5A
S11337E01A70FB1D1B787F2B28D82F4AFB1D1B78D2
S11337F05BB29B08C0339B009B58FA1D12781100E2
S113380003220A40D200FF2191400A00D2431A4009
S113381011003B689B01FF221A40FB1D1B78180016
S113382003230340DB009A401F48FB1D1B785BB257
S11338309B080A43C0339B001A5031E01B4AFB1D0E
S11338401B7819000F230B40083B9B0806339B0091
S1133850D31804331B68FA1D1278110003220A409E
S1133860D200FF2191400A00D2431A4011003B6864
S11338709B01FF221A40FB1D1B7818000323034001
S1133880DB009A400948FB1D1B781C000F232340D2
S1133890083B9B080A4306339B00C31804331A6091
S11338A0C046BD4603B090BD00E100E000ED00E07D
S11338B080B582B000AF78607B68013B0C4A9342CC
S11338C001D9012310E00B4B7A68013A5A600123B5
S11338D05B4203211800FFF77DFF064B00229A602C
S11338E0044B07221A6000231800BD4602B080BDB5
S11338F0FFFFFF0010E000E080B500AF034BDB6C7E
S11339001B0EDBB21800BD4680BDC046B081E00F7F
S113391080B582B000AF786004498E235B007A687A
S1133920CA50C046BD4602B080BDC04600600040DB
S113393090B583B000AF0C4B01221A64FC1DFFF755
S1133940DBFF03002370FB1D1B78812B08D8074B7A
S1133950074A1A60074B1A68064B07490A401A605F
S1133960C046BD4603B090BD00000C4018600C403A
S113397005000004E4800C40FFFFFFFE80B500AFAB
S1133980034B1B685A1C024B1A60C046BD4680BDDF
S11339909C01002080B500AF024B00221A60C04693
S11339A0BD4680BD10E000E080B500AF094B1800B3
S11339B0FDF7AEFD0200FA239900100000F0C8F8EC
S11339C003001800FFF774FF031E00D0FEE7C04693
S11339D0BD4680BD7000020080B500AF024B0122DD
S11339E01A70C046BD4680BD9B01002080B500AF63
S11339F0064B1800FFF78CFF054B01221A70054B8C
S1133A001800FDF721F8C046BD4680BD555500009D
S1133A109B0100205449000080B500AF064B1800FC
S1133A20FFF776FF054B01221A70054B1800FDF7CE
S1133A300BF8C046BD4680BDAAAA00009B01002029
S1133A406849000080B582B002AF374B1B78DBB207
S1133A50012B33D0022B52D0002BF6D1FFF768FF95
S1133A60324B01211800FDF7FBFC314B01211800FA
S1133A70FDF7F6FC2F4B01211800FDF7F1FC2E4B4E
S1133A8001229A702C4B0122DA702B4B09221A72F4
S1133A90FFF7E4F9294B1800FFF78AF9FCF738FC23
S1133AA0FCF758FBFFF780FF25480023012204217F
S1133AB0FCF712FE1C4B01221A7034E00020FCF7C4
S1133AC0DFFB0020FCF7FEFB1C4B1868002300936F
S1133AD0002369220021FFF717FA0120FEF70EF9EF
S1133AE0184B1800FCF742FB0F4B02221A70154BBF
S1133AF01800FCF789FB0C4B02221A7013E001201A
S1133B00FCF7BEFBFFF746FF0C4B18680E4A0F4943
S1133B100023009313000A000021FFF7F5F90120A8
S1133B20FEF7ECF8C04690E79B01002000820400F9
S1133B30408104007000020028000020440200209C
S1133B4000C400404C020020D93900008813000052
S1133B50002243088B4274D303098B425FD3030AC8
S1133B608B4244D3030B8B4228D3030C8B420DD3DB
S1133B70FF22090212BA030C8B4202D31212090269
S1133B8065D0030B8B4219D300E0090AC30B8B42A7
S1133B9001D3CB03C01A5241830B8B4201D38B0355
S1133BA0C01A5241430B8B4201D34B03C01A5241FA
S1133BB0030B8B4201D30B03C01A5241C30A8B423D
S1133BC001D3CB02C01A5241830A8B4201D38B0228
S1133BD0C01A5241430A8B4201D34B02C01A5241CC
S1133BE0030A8B4201D30B02C01A5241CDD2C3093E
S1133BF08B4201D3CB01C01A524183098B4201D3BA
S1133C008B01C01A524143098B4201D34B01C01AA4
S1133C10524103098B4201D30B01C01A5241C3081C
S1133C208B4201D3CB00C01A524183088B4201D38B
S1133C308B00C01A524143088B4201D34B00C01A77
S1133C405241411A00D20146524110467047FFE7E3
S1133C5001B5002000F006F802BDC0460029F7D0E7
S1133C6076E770477047C0461C2101231B04984225
S1133C7001D3000C10391B0A984201D3000A0839F9
S1133C801B09984201D30009043902A2105C4018B0
S1133C907047C04604030202010101010000000054
S1133CA000000000002B11D1002A0FD1002900D1FF
S1133CB0002802D00021C943081C07B4024802A10D
S1133CC04018029003BDC0469DFFFFFF03B4684641
S1133CD001B5029800F006F8019B9E4602B00CBCA8
S1133CE07047C046F0B54F464646D646C0B50400B8
S1133CF082B00D00914698468B422FD82CD0414675
S1133D00484600F001FC29000600200000F0FCFBFE
S1133D10331A9C46203B9A4600D576E04B465246E1
S1133D2093401F004B46624693401E00AF4228D882
S1133D3025D05346A41BBD41002B00DA7BE00022B2
S1133D4000230092019301235246934001930123DF
S1133D5062469340009318E08242D0D900220023A7
S1133D60009201930A9B002B01D01C605D600098B7
S1133D70019902B01CBC90469946A246F0BDA342EC
S1133D80D7D900220023009201936346002BE9D087
S1133D90FB079846414672080A437B0866460EE0D4
S1133DA0AB4201D1A2420CD8A41A9D41012024198E
S1133DB06D410021013E24184D41002E06D0AB4236
S1133DC0EED9013E24196D41002EF8D100980199D5
S1133DD0534600196941002B23DB2B005246D34084
S1133DE02A006446E2401C0053461500002B2DDBDC
S1133DF026005746BE40330026006746BE403200C8
S1133E00801A994100900191ACE7624620239B1AE5
S1133E104A46DA406146130042468A4017001F436F
S1133E2080E7624620239B1A2A0066469A402300B4
S1133E30F3401343D4E76246202300219B1A002257
S1133E40009101920122DA40019280E72023624628
S1133E5026009B1ADE402F00B0466646B740464611
S1133E603B003343C8E7C04641024200C30F490A3E
S1133E70120E00207E2A0DD99D2A0CD88020000421
S1133E800143952A0ADC9620821AD1404842002B2D
S1133E9000D108007047034A9818FBE7963A91400E
S1133EA0F4E7C046FFFFFF7FF0B55746DE464E46B7
S1133EB04546E0B5834606000F03480087B09246A6
S1133EC01D003F0B400DCC0F002800D16FE0DE4BEE
S1133ED0984238D08023FF001B041F43730F3B43D9
S1133EE00193DA4B0027994600239B46F600814450
S1133EF02B0369001B0B52469846490DED0F002910
S1133F0000D185E0D04B994200D173E04346DA00FA
S1133F1080231B0413435246CC48520F8446134358
S1133F20524600206144D200894421006940009136
S1133F308C46012149448A460F2F00D990E0C44998
S1133F40BF00CF59BF465B463B43019300D06AE1B3
S1133F5002230827002681469B46C9E732005846BB
S1133F60019B61460091022800D175E0032800D12D
S1133F70FEE1012800D02CE10023002700260025C3
S1133F803F032A0D3F0BB34812053A4302401B0579
S1133F901343009A5B00D1075B080B433000190000
S1133FA007B03CBC90469946A246AB46F0BD5B4682
S1133FB03B43019300D12FE1002F00D1A5E138004C
S1133FC0FFF752FE03000B3B1C2B00DD96E11D2284
S1133FD0D31A5A460100DA405E4608398F4013006E
S1133FE08E403B4301939C4B00271B1A99460023A8
S1133FF09B467DE7414653460B4393498C46E14437
S1134000002B00D01AE102220220174300228CE781
S1134010134300D10DE14346002B00D181E140461A
S1134020FFF722FE02000B3A1C2A00DD72E10100B8
S1134030434608398B4098461D239A1A5346D34069
S11340401A004346134352468A404946081A824995
S113405089468144002068E77B4B002700268EE7D1
S1134060140C1204120C1100370C3604350C79436D
S113407028008C462E00604360448346564321004A
S1134080300C80465846794340440291844506D911
S11340908846802149028C46E04441460291360418
S11340A0010C360C00048B4681191E0C1B041B0CDE
S11340B00391190079438C46280075436544A8464A
S11340C05843050C45447743A94203D9802149024A
S11340D08C466744290C8C4639000004000C2D04DE
S11340E02D186144AB4405915946049101990F047C
S11340F03F0C080C390051434243904602008C4661
S1134100090C8B4662437C4344445C44A04503D978
S11341108021490288464244210C884661460904AC
S1134120090C8C4639005943434370437E430F0CBA
S1134130F6182404BE19644442448C46B34203D99D
S113414080235B0298464044029B61469846049B48
S1134150370443449B46AB45AD416B420D0405997E
S11341602D0C8C467F196744FD18A8465D462D1911
S1134170A542A44193466442A446C344DC448F420E
S1134180BF4198459B4193459241A445A4415B425C
S11341907F421F43360C52426442BF192243BF1868
S11341A0624638184302D20D039913436A020A4344
S11341B0501E82416146ED0D2A434E023243D9011D
S11341C000D4B3E00126500832400243DE073243F4
S11341D05B08224C5444002C62DD510709D00F20A7
S11341E01040042805D0101D9042924152429B1861
S11341F00200D90104D580241948E4000340544442
S11342001848844200DD27E75E075B02D2081F0BD3
S1134210630516435B0DB2E6002399460133042778
S113422000269B4664E60323019781460C279B46A0
S11342305EE6012201201743002276E603230320D1
S11342401F43434671E6C046FF07000001FCFFFF21
S11342507C490000FFFF0F800DFCFFFFFF030000FF
S1134260FFFFFFFEFE0700000023802700933F03AB
S11342700026434B83E6019B3200A446584670E671
S1134280AC466EE6802701993F0339422DD03B426C
S11342902BD11F433F033F0B00951600384B6EE6AE
S11342A001252D1B382D00DD66E61F2D40DC354829
S11342B01C005044160082408440EE40501E82414F
S11342C034431443EB40620709D00F222240042AEE
S11342D005D02200141D9442804140421B181A024A
S11342E03ED501230027002649E68027019B3F0392
S11342F01F433F033F0B0094214B40E603005A4603
S1134300283B9A40002601926DE65846FFF7ACFC24
S1134310203057E603005246283B9A4013000022FF
S113432093E65046FFF7A0FC20307BE6CA4650E7F0
S11343301F201E004042041BE640202D03D0124CD7
S11343405444A3401A43501E824132430726002797
S1134350164009D00F200023104014000428B9D1BE
S113436022005E075B021F0BD2081643002306E6F9
S113437080273F031F433F033F0B1600004BFEE51E
S1134380FF0700001E0400003E04000070B5002872
S11343902DD0C317C5185D40C40F2800FFF764FC77
S11343A0154B1B1A5B055B0D0A2815DD0B38854080
S11343B000222D032D0B002110002D030A0D2D0BBF
S11343C012052A430D4D1B052A4013435B00E407E5
S11343D05B082343190070BD020029001532914087
S11343E00A000B21081AC5402D032D0BE3E7002416
S11343F0002300250022DEE71E040000FFFF0F80DB
S1134400F0B54C00640D0B03621C5B0A460F5205A9
S1134410C90F1E43C500520D012A29DD374BE71889
S1134420FE2F1CDC002F3BDD8001431E9841072238
S1134430F3006D0F03432B431A40002A04D00F22CC
S11344401A40042A00D004338022D2041A4024D013
S11344500137FAB2FF2F02D09B01580A01E0FF2274
S113446000204002D205400AC90710430843F0BDAA
S11344703543002C04D1002D0AD100220020F0E79E
S1134480002DECD08020C0033043FF22E9E7002454
S113449000235B02580AE2B2E3E7DB083C00F8E7DA
S11344A03B001733F3DB80231B0433431E26F61B28
S11344B01F2E14DD02225242D71B1A00FA401700A5
S11344C0202E04D00E4A94466444A3401D432B007E
S11344D05D1EAB4107223B431A400027ADE7094A62
S11344E02800A218954093406C1EA541F040072275
S11344F02B4303431A4000279FE7C04680FCFFFF7D
S1134500A2FCFFFF82FCFFFF10B5002903D1FFF7D7
S1134510ABFB203002E0081CFFF7A6FB10BDC04631
S1134520084B10B50400002B02D0002100E000BFAE
S1134530054B1868836A002B00D09847200000F0D0
S113454031F8C04600000000BC49000070B50026E8
S11345500C4D0D4C641BA410A64209D1002600F09A
S113456023F80A4D0A4C641BA410A64205D170BD61
S1134570B300EB5898470136EEE7B300EB58984781
S11345800136F2E7A4000020A4000020A4000020CB
S1134590A800002003001218934200D1704719703C
S11345A00133F9E7FEE7C046F8B5C046F8BC08BCDD
S11345B09E467047F8B5C046F8BC08BC9E46704796
S11345C001B40248844601BC604700BF9500002046
S11345D009000000000000002D2D2D2D2D2D2D2D66
S11345E02D2D2D2D2D2D2D2D2D2D2D2D2D2D2D2DF7
S11345F02D2D2D2D2D2D2D2D2D2D2D2D2D2D2D2DE7
S11346002D2D2D2D2D2D2D2D2D2D2D001B5B306DA4
S113461000000000070D0C23232320554152542091
S1134620696E697469616C697A65642028696E745D
S1134630657272757074206D6F646529202323235D
S1134640000000005468697320697320616E20695A
S11346506E666F206D6573736167652E00000000E0
S1134660546869732069732061207761726E696E82
S113467067206D6573736167652E00005468697304
S1134680206973206120637269746963616C2065B9
S113469072726F72206D6573736167652E0000001E
S11346A02323232020537461727420657865637515
S11346B074696E672070726F6772616D6D656420D6
S11346C0636F646520202323230A0000070D0C2355
S11346D02323205541525420696E697469616C69C1
S11346E07A656420286E6F20696E746572727570C5
S11346F074732920232323002323232053746172FA
S11347007420657865637574696E672070726F676D
S113471072616D6D656420636F64652020232323BB
S11347200A000000050000000000000000C20100B3
S11347300005000000100000000000001B5B333186
S11347406D0000001B5B33326D0000001B5B3334D3
S11347506D0000001B5B33366D0000001B5B3335BE
S11347606D0000001B5B33336D000000494E464F63
S11347703A2000005741524E3A2000004352495417
S11347803A2000002D000000307800004E6F2072A7
S1134790656365697665642064617461206176612E
S11347A0696C61626C6521007A070000760800007C
S11347B094070000A2070000BC070000D607000011
S11347C0D60700000E080000760800002808000044
S11347D028080000420800005C0800009808000057
S11347E0AA080000BE080000D0080000E20800008B
S11347F0F408000006090000EE0A0000080B00009F
S1134800220B00003C0B0000560B0000700B000054
S1134810DC0A0000401400004013000040140000B3
S113482040140000761300004014000040140000FF
S11348309E130000DC1300000E140000E8140000B6
S11348408E1400009414000088140000E814000082
S1134850E81400009A140000A4140000AE14000030
S1134860E8140000BA140000061800007C160000CA
S1134870E4160000301700007C1700000618000042
S1134880AE170000B81700004A1A000066180000AE
S1134890F6180000F6180000881900004A1A0000F3
S11348A04A1A0000D61900004E1A00004E1A0000E1
S11348B07A1800008818000096180000A418000058
S11348C04E1A00004E1A00004E1A00004E1A000044
S11348D04E1A0000B21800004E1A0000521A0000CE
S11348E00A1900001019000020190000521A0000D3
S11348F0521A000030190000521A0000521A000027
S1134900521A0000521A0000521A00004219000004
S1134910E01A0000D21A0000B61A0000A81A00001B
S1134920C41A0000F21A0000080911088C220000C1
S1134930E222000074230000CA23000020240000A7
S1134940762400000225000050250000EC2500001C
S113495001000000496E7465727275707420666996
S11349607265642120310000496E7465727275703D
S11349707420666972656421203200006040000082
S1134980623F0000623F0000804200005C3F000084
S11349905C3F000068420000804200005C3F000071
S11349A0684200005C3F0000804200007642000044
S11349B07642000076420000844200003400002069
S10749C000000000EF
S10B49C418B7FF7F0100000099
S11349CC00A00040030703060100000000000000E3
S11349DC486B01000000000000366E0100800000EE
S11349EC809FD500006CDC02010000000000000177
S11349FC0F00000000000000000000000000000098
S1134A0C0000000000000000000000000000000096
S1134A1C0000000000000000000000000000000086
S1134A2C0000000000000000000000000000000076
S1134A3C0000000000000000000000000000000066
S1134A4C0000000000000000000000000000000056
S1134A5C0000000080B500AF30BF04231B68C046C3
S10F4A6CBD4680BDBD00000095000000A8
S9030429CF
