:100000000020002055010000810100008101000056
:1000100081010000810100008101000081010000D8
:1000200081010000810100008101000081010000C8
:1000300081010000800100008101000081010000B9
:1000400081010000810100008101000081010000A8
:100050008101000081010000810100008101000098
:100060008101000081010000810100008101000088
:100070008101000081010000810100008101000078
:100080008101000081010000810100008101000068
:100090008101000010B5064C2378002B07D1054BD9
:1000A000002B02D0044800E000BF0123237010BDE4
:1000B0006800002000000000900A0000044B10B50A
:1000C000002B03D00349044800E000BF10BDC04628
:1000D000000000006C000020900A0000164B002B6E
:1000E00000D1144B9D46402292029A1A924600215A
:1000F0008B460F461348144A121A00F089FC0F4B26
:10010000002B00D098470E4B002B00D098470020C2
:10011000002104000D000D48002802D00C4800E02A
:1001200000BF00F051FC2000290000F01BFC00F093
:1001300035FCC04600000800002000200000000040
:100140000000000068000020900000200000000077
:1001500000000000064880470649074A074B9B1AE3
:1001600003DD043BC858D050FBDCFFF7B7FF0000AD
:10017000850100009C0A00000000002068000020AB
:10018000FEE7C04680B500AF024B034A9A60C04606
:10019000BD4680BD00ED00E00000000080B586B0E7
:1001A00000AFF860B9607A60FB681B687B61012270
:1001B000BB689A401300DB431A007B691A407B68D6
:1001C00001211940BB6899400B001A43FB681A6073
:1001D000C046BD4606B080BD80B582B000AF786035
:1001E000074B5B6D0122134006D1C046044B1B6DCB
:1001F0007A681340FAD100E0C046BD4602B080BD27
:1002000000800C4080B586B000AF78600A00FB1C0F
:100210001A7000233B617B681B0A0F2213400A2BD4
:1002200034D89A001B4BD3181B689F461A4B7B612E
:1002300018E01A4B7B6115E0194B7B6112E0194BFA
:100240007B6101233B610DE0174B7B6110233B6118
:1002500008E0164B7B6180235B003B6102E0144B9E
:100260007B61C0467B681B0B1F221340FB603B6910
:10027000002B03D03B691800FFF7AEFFFB1C1A7878
:10028000F9687B691800FFF789FF00E0C046BD46AA
:1002900006B080BD3C0A000040800C4008800C4045
:1002A00044800C4058800C4060800C4064800C40BE
:1002B00078800C4080B582B000AF786039607B6890
:1002C0003A681A63C046BD4602B080BD80B582B0B0
:1002D00000AF786001E07B68DB697B68DA688023C7
:1002E0005B001340F7D1C046BD4602B080BD0000A0
:1002F00080B588B000AF78607B68C74A934205D16B
:10030000C64BBB61BB699B687B6102E004235B4217
:100310000FE27B689B6A3B613A69C023DB001340B4
:1003200014D03A6980239B00134003D0BB69FD229F
:100330005A7007E03A698023DB00134002D0BB69A2
:10034000FE225A70BB6909221A70DDE1BB691B7875
:10035000082B00D9C4E19A00B14BD3181B689F4603
:100360007B695B881A00102313400AD07B691B88C5
:100370001B0A9BB21A0006231340F0221343FB61B1
:100380000FE07B691B881A00FE231340FB617B6929
:100390005B881A000223134003D0FB690122134338
:1003A000FB61BB6901221A707B68FA695A627B683B
:1003B00001225A60A8E13B69802213400ED07B687D
:1003C00080211800FFF776FFBB69FF225A70BB69D6
:1003D00008221A707B6802225A608AE13B69402237
:1003E000134000D185E17B6840211800FFF762FFD0
:1003F0007B695B881A00102313400AD0BB69022274
:100400001A707B691B881A00FF231A407B685A62A6
:100410006FE17B695B881A000223134010D0BB692F
:1004200007221A70BB691B797A69DB00D31808337D
:100430001B88012B00D05CE17B6808225A6058E1E0
:10044000BB6905221A7053E13B69802213400ED02C
:100450007B6880211800FFF72DFFBB69FF225A70CF
:10046000BB6908221A707B6802225A6043E13B692B
:100470004022134000D13EE17B6840211800FFF785
:1004800019FF7B695B881A000223134003D0BB6904
:1004900003221A702CE1BB6905221A7028E17B69DE
:1004A0005B881A00102313400AD07B691B881B0A43
:1004B0009BB21A0006231340F0221343FB6105E0B0
:1004C0007B691B881A00FE231340FB617B695B88F4
:1004D0001A000423134003D0FB6901221343FB617C
:1004E000BB6904221A707B6801225A607B68FA6932
:1004F0005A6209E13B69802213400ED07B6880215B
:100500001800FFF7D7FEBB69FF225A70BB690822AB
:100510001A707B6802225A60EFE03B694022134068
:1005200000D1EAE07B6840211800FFF7C3FE7B6939
:100530005B881A000423134003D0BB6907221A709A
:10054000DBE0BB6905221A70D2E0BB695A88BB693F
:100550001B797969DB00CB1808331B889A4224D3B6
:10056000BB6900225A80BB691B790133DAB2BB69CF
:100570001A717B695B881A000423134003D0BB699E
:1005800003221A70B4E07B695B881A0001231340D0
:1005900004D1BB691B79012B00D8A8E0BB690822F4
:1005A0001A707B6802225A60AEE0BB691B797A69D7
:1005B000DB00D31804331A68BB695B88591C88B206
:1005C000B9694880D3181B781A007B685A62BB69E6
:1005D00006221A7098E03B69802213400ED07B6897
:1005E00080211800FFF766FEBB69FF225A70BB69C5
:1005F00008221A707B6802225A6080E03B69402220
:10060000134000D17BE07B6840211800FFF752FEC9
:10061000BB6905221A706BE000A000408400002036
:10062000680A00003B692022134000D169E0BB69E1
:100630001B797A69DB00D31808331B88FB607B6861
:10064000DA690B23FB181A70BB695B881A00FB6818
:10065000934211D9BB691B797A69DB00D318043343
:100660001A68BB695B88591C88B2B9694880D3187D
:100670000B22BA1812781A70BB695B881A00FB68E3
:1006800093420CD8FB68012B02D17B6808225A6088
:10069000BB6908221A707B6802225A6031E07B68CD
:1006A00004225A60FB68012B2BD9BB695B881A00B6
:1006B000FB68013B9A4224D17B6808225A6020E003
:1006C0003A6980235B0013401DD080235A007B6869
:1006D00011001800FFF7EEFDBB6909221A7012E045
:1006E000BB69FB225A70BB6909221A700CE0C04634
:1006F0000FE6C04608E0C04606E0C04604E0C0463B
:1007000002E0C04600E0C046BB691B78092B0BD154
:100710007B6800225A63BB695B785BB2012B05D111
:10072000BB6900225A7001E0012302E0BB695B78DB
:100730005BB21800BD4608B080BDC04680B584B02D
:1007400000AF786039607B68294A934207D1294B12
:10075000FB607B689B680122134006D002E0042303
:100760005B4241E07B6820225A603B685B881A004C
:100770000223134003D03B681B89002B09D03B6840
:100780005B881A000423134006D03B681B8A002BA9
:1007900002D104235B4227E0FB6800221A70FB6849
:1007A00001225A70FB6800225A80FB6800221A71ED
:1007B000FB683A689A607B68C0225A607B681800C0
:1007C000FFF784FD0C4A7B6811001800FFF772FDEB
:1007D0007B685B6BFC22D2001A437B685A637B68A0
:1007E0001800FFF785FD03001800BD4604B080BD6A
:1007F00000A0004084000020FFFF010090B585B0FC
:1008000000AF78603960144BBB600F23FC183A6866
:100810007B6811001800FFF791FF0300237007E0C9
:100820000F23FC187B681800FFF762FD030023709C
:100830000F23FB181B785BB2012B04D1BB685A1E37
:10084000BA60002BECD10F23FB181B785BB21800A9
:10085000BD4605B090BDC046E093040080B500AF32
:10086000034BDB6C1B0EDBB21800BD4680BDC046DF
:10087000B081E00F90B583B000AF0C4B01221A6439
:10088000FC1DFFF7EBFF03002370FB1D1B78812B82
:1008900008D8074B074A1A60074B1A68064B0749E6
:1008A0000A401A60C046BD4603B090BD00000C402F
:1008B00018600C4005000004E4800C40FFFFFFFEC0
:1008C000B0B58CB000AFF86008007A6019000B2456
:1008D0003B19021C1A700A203B180A1C1A703B199B
:1008E0001B789AB218217B181A807B1804225A8030
:1008F00010243B193A1812781A707B183A195A606A
:100900007B1801221A817B181422BA18DA607B182E
:1009100002221A822F257C197A18FB681100180010
:10092000FFF76CFF030023707B191B785BB2002B71
:1009300007D07B6800221A602F23FB181B785BB25C
:100940000CE014217B181B781A027B185B781900C5
:10095000FC230B40D2187B681A6002231800BD46A6
:100960000CB0B0BD80B582B000AFFFF783FF094B7C
:1009700001211800FFF746FCFB1D0E221A703B00F8
:10098000FA1D12781A703A1D03480023D221FFF78E
:1009900097FFF8E70082040000A00040084B10B564
:1009A0000400002B02D0002100E000BF054B1868B6
:1009B000836A002B00D09847200000F031F8C04631
:1009C000000000008C0A000070B500260C4D0D4C94
:1009D000641BA410A64209D1002600F023F80A4D9A
:1009E0000A4C641BA410A64205D170BDB300EB589D
:1009F00098470136EEE7B300EB5898470136F2E727
:100A000060000020600000206000002064000020E2
:100A100003001218934200D1704719700133F9E7AF
:100A2000FEE7C046F8B5C046F8BC08BC9E46704715
:100A3000F8B5C046F8BC08BC9E4670478C02000062
:100A400032020000380200002C0200008C0200007C
:100A50008C0200003E02000048020000520200002A
:100A60008C0200005E02000060030000B60300007C
:100A7000480400009E040000F40400004A05000041
:100A8000D605000024060000C0060000000000207B
:040A90000000000062
:080A940048F6FF7F010000009D
:100A9C00000000000000000000000000000000004A
:100AAC00000000000000000000000000000000003A
:100ABC00000000000000000000000000000000002A
:100ACC00000000000000000000000000000000001A
:100ADC00000000000000000000000000000000000A
:100AEC0000000000000000000000000000000000FA
:080AFC00BD00000095000000A0
:0400000300000155A3
:00000001FF
