S0110000456D6265646465645F312E73333749
S113000000200020F5010000210200002102000070
S11300102102000021020000210200002102000050
S11300202102000021020000210200002102000040
S11300302102000020020000210200002102000031
S11300402102000021020000210200002102000020
S11300502102000021020000210200002102000010
S11300602102000021020000210200002102000000
S113007021020000210200002102000021020000F0
S113008021020000210200002102000021020000E0
S11300902102000010B5064C2378002B07D1054B34
S11300A0002B02D0044800E000BF0123237010BDE0
S11300B09000002000000000A4180000044B10B5BC
S11300C0002B03D00349044800E000BF10BDC04624
S11300D00000000094000020A4180000164B002B20
S11300E000D1144B9D46402292029A1A9246002156
S11300F08B460F461348144A121A01F081FB0F4B2A
S1130100002B00D098470E4B002B00D098470020BE
S1130110002104000D000D48002802D00C4800E026
S113012000BF01F049FB2000290001F079FA01F039
S11301302DFBC04600000800002000200000000045
S11301400000000090000020B80000200000000023
S11301500000000080B500AF034B180001F090F9D7
S1130160C046BD4680BDC04600000020B0B58AB080
S113017000AFB96011007B600F243B19021C1A7098
S11301800E203B180A1C1A703B191B789AB21021D6
S11301907B181A807B1804225A807B18BA685A602C
S11301A03B181B789AB27B181A817B187A68DA603C
S11301B03823FB181B789AB27B181A820C4B1B68E5
S11301C027257C197A181100180001F0C7F90300DB
S11301D023707B191B785BB2002B04D07B68002250
S11301E01A70002300E001231800BD460AB0B0BD18
S11301F000000020064880470649074A074B9B1A1F
S113020003DD043BC858D050FBDCFFF767FF000058
S113021059030000B01800000000002090000020E6
S1130220FEE7C04680B582B000AF00F017F80300C7
S11302307B60084B5B680F2213407A68DA40130036
S11302407B60054B7A681A607B681800BD4602B073
S113025080BDC04600800C402000002080B582B0E4
S113026000AF334BDB6A334A13408022520193427E
S113027015D080225201934204D880221201934265
S113028011D017E080229201934204D08022D2043C
S113029093420CD00EE0284B1B687B6039E080232E
S11302A01B027B6035E0254B1B687B6031E0244BEF
S11302B07B602EE01E4BDA68E023DB0013408022D3
S11302C09200934218D080229200934206D8002BC9
S11302D018D080225200934211D016E0C02292001E
S11302E0934206D08022D20093420ED1154B7B60FC
S11302F00EE0154B7B600BE0144B7B6008E0144B65
S11303007B6005E0134B7B6002E000237B60C0460A
S1130310C046074B1B689B0B07221340013319008F
S1130320786801F0A7F903001800BD4602B080BD4B
S113033000800C40003C00041C0000201800002039
S113034000366E01406F4001809FD500C0D8A700E1
S113035040B56400804F120080B500AF024B034AE1
S11303609A60C046BD4680BD00ED00E0000000007C
S113037080B500AF80231B021800BD4680BD80B548
S113038000AFFA239B001800BD4680BD80B500AFC6
S1130390024B1B681800BD4680BDC0461C000020EF
S11303A080B586B000AFF860B9607A60FB681B68FE
S11303B07B610122BB689A401300DB431A007B690E
S11303C01A407B6801211940BB6899400B001A430D
S11303D0FB681A60C046BD4606B080BD80B500AF5C
S11303E0034BDB6C1B0EDBB21800BD4680BDC04660
S11303F0B081E00F80B582B000AF224B5A69E02390
S1130400DB0013408022920093421ED0802292008F
S1130410934206D8002B26D08022520093421FD04C
S113042027E0C0229200934204D0E022D2009342FB
S11304301CD01EE0FFF7D2FF0300122B02D9124B8F
S11304407B6019E0114B7B6016E0FFF7C7FF0300E8
S1130450122B02D90E4B7B600EE00E4B7B600BE03F
S11304600D4B7B6008E00D4B7B6005E00C4B7B6023
S113047002E000237B60C0467B681800BD4602B0E2
S113048080BDC04600800C40804F120040420F00E7
S113049040B56400C0CF6A00C0D8A700809FD500D3
S11304A0406F400190B583B000AFFC1C0E4B1800A8
S11304B000F0DCF903002370FB1C1B78072B06D02B
S11304C0092B09D1FFF7CAFE03007B6007E0FFF7A1
S11304D091FF03007B6002E000237B60C0467B68E1
S11304E01800BD4603B090BD06000E0080B584B070
S11304F000AF78600023BB607B68364A934206D025
S1130500354A934203D0354A934200D000E0C046B6
S11305107B68180000F0AAF90300FB607B682D4A91
S113052093420CD02C4A934210D02C4A934200D0D0
S113053013E02B4B9B6A03221340FB600DE0284B16
S11305409B6A9B0803221340FB6006E0244B9B6AD2
S11305501B0903221340FB60C046FB68012B05D036
S113056014D3022B07D0032B0AD02AE0FFF700FF95
S11305700300BB6029E0FFF709FF0300BB6024E030
S1130580FFF750FE03005B08BB601EE00023BB6066
S11305907B68124A934203D07B680E4A934213D17C
S11305A00F4B9A6A7B680D498B4201D1102300E0FE
S11305B01423DA40131E07D0FFF7E1FE0300BB60EB
S11305C002E00023BB6000E0C046BB681800BD46E3
S11305D004B080BD030020000400220002001E00BD
S11305E000800C4080B582B000AF7860074B5B6D33
S11305F00122134006D1C046044B1B6D7A68134098
S1130600FAD100E0C046BD4602B080BD00800C4077
S113061090B583B000AFFC1C164B180000F026F90F
S113062003002370FB1C1B78032B0DD002DC022B70
S113063005D017E0092B10D00A2B0AD012E0FFF7DF
S1130640A5FE03007B6010E0FFF792FE03007B60D1
S11306500BE0094B1B687B6007E0FFF7FFFD03001D
S11306607B6002E000237B60C0467B681800BD46C7
S113067003B090BD073326002400002080B586B067
S113068000AF78600A00FB1C1A7000233B617B6892
S11306901B0A0F2213400A2B34D89A001B4BD31881
S11306A01B689F461A4B7B6118E01A4B7B6115E06F
S11306B0194B7B6112E0194B7B6101233B610DE017
S11306C0174B7B6110233B6108E0164B7B61802351
S11306D05B003B6102E0144B7B61C0467B681B0BF3
S11306E01F221340FB603B69002B03D03B691800B9
S11306F0FFF778FFFB1C1A78F9687B691800FFF78D
S11307004FFE00E0C046BD4606B080BD2C18000078
S113071040800C4008800C4044800C4058800C40C1
S113072060800C4064800C4078800C4080B584B0BC
S113073000AF78607A68F8239B0313408022520349
S1130740934200D179E080225203934213D880224D
S1130750920293423BD080229202934202D8002B11
S113076023D074E08022D202934223D0E0221203E9
S113077093425DD06BE0F022520393422CD0F022DE
S11307805203934208D89022520393422BD0D02292
S1130790520393423DD05AE080229203934231D0D7
S11307A09822920393424DD051E0FFF757FD030086
S11307B0FB604FE0FFF752FD0300FB60284B9B6892
S11307C00F221340FA68DA401300FB6042E0FFF79F
S11307D029FD0300FB603DE0224B1800FFF786FE75
S11307E00300FB6036E01F4B1800FFF77FFE030099
S11307F0FB601B4B9B6E0F221340FA68DA40130018
S1130800FB6027E0184B1800FFF770FE0300FB6045
S113081020E0154B1800FFF769FE0300FB60104B46
S11308201B6F03221340FA68DA401300FB6011E0E7
S1130830FFF738FE0300FB600CE0FFF7DBFD03006D
S1130840FB6007E0FFF7E4FE0300FB6002E0002327
S1130850FB60C046FB681800BD4604B080BDC046BE
S113086000800C4002001E000300200080B584B00C
S113087000AF78600F23FB1801221A707B680F22E7
S11308801340BB60BB68072B00D9CAE0BB689A0061
S11308906A4BD3181B689F46694BDB6A694A13404D
S11308A080225201934216D080225201934204D8EE
S11308B080221201934213D01CE0802292019342C1
S11308C004D08022D20493420FD013E00F23FB18EC
S11308D002221A7013E00F23FB1803221A700EE091
S11308E00F23FB1804221A7009E00F23FB180B22B4
S11308F01A7004E00F23FB1805221A70C04695E015
S11309004F4B9B6A03221340022B08D0032B0BD0BE
S1130910012B0ED10F23FB1803221A7015E00F23AD
S1130920FB1802221A7010E00F23FB1806221A701B
S11309300BE0434B9A6A80235B02134004D00F23DD
S1130940FB180C221A7000E0C0466FE03C4B9B6A17
S11309500C221340082B08D00C2B0BD0042B0ED1E7
S11309600F23FB1803221A7015E00F23FB18022231
S11309701A7010E00F23FB1806221A700BE0304B9C
S11309809A6A80235B03134004D00F23FB180C22C4
S11309901A7000E0C04649E0294B9B6A302213409C
S11309A0102B02D0202B05D009E00F23FB180322C3
S11309B01A7009E00F23FB1802221A7004E00F23B7
S11309C0FB1801221A70C04630E00F23FB180722DF
S11309D01A702BE01A4BDA6AE023DB021340802200
S11309E09202934212D08022D202934204D08022F7
S11309F05202934205D00EE00F23FB180A221A700C
S1130A000EE00F23FB1802221A7009E00F23FB18D3
S1130A1003221A7004E00F23FB1801221A70C04647
S1130A2004E00F23FB1800221A70C0460F23FB18A2
S1130A301B781800BD4604B080BDC046581800009D
S1130A4000800C40003C000480B582B000AF02007E
S1130A503960FB1D1A70FB1D1B78002B0DD0FB1D8C
S1130A601B78012B09D0FB1D1B78022B05D0FB1D25
S1130A701B78032B01D0FB1D1B7801223B689A4095
S1130A8010000749FB1D1A781300DB009B189B001C
S1130A90CB1814331860C046BD4602B080BDC046B2
S1130AA00060004080B582B000AF02003960FB1DD9
S1130AB01A70FB1D1B78002B0DD0FB1D1B78012B1E
S1130AC009D0FB1D1B78022B05D0FB1D1B78032BC3
S1130AD001D0FB1D1B7801223B689A401000074996
S1130AE0FB1D1A781300DB009B189B00CB181033F6
S1130AF01860C046BD4602B080BDC04600600040DC
S1130B0090B585B000AFB96011007B600F243B192C
S1130B10021C1A700E23FB180A1C1A703B191B784E
S1130B20002B11D00F23FB181B78012B0CD00F23A3
S1130B30FB181B78022B07D00F23FB181B78032B01
S1130B4002D00F23FB181B780E23FB181B78002BF5
S1130B5013D07B68002B08D0BA680F23FB181B78CE
S1130B6011001800FFF79EFF07E0BA680F23FB1877
S1130B701B7811001800FFF767FFBB68072B25D807
S1130B8036490F243B191A781300DB009B189B008D
S1130B90CB1804331B68BA6892000F2191400A00F5
S1130BA0D24313400E22BA181178BA6892009140C9
S1130BB00A00110029483A19127819431300DB007E
S1130BC09B189B00C318043319602AE023490F249F
S1130BD03B191A781300DB009B189B00CB180833D1
S1130BE01B68BA681E498C46624492000F219140EA
S1130BF00A00D24313400E22BA181178BA68184872
S1130C0084466244920091400A00110013483A1944
S1130C10127819431300DB009B189B00C318083398
S1130C2019600E23FB181B78002B13D17B68002B53
S1130C3008D0BA680F23FB181B7811001800FFF7BF
S1130C4031FF07E0BA680F23FB181B781100180066
S1130C50FFF7FAFEC046BD4605B090BD00600040F7
S1130C60F8FFFF3F80B582B000AF786039607B68E1
S1130C703A681A63C046BD4602B080BD80B586B0EE
S1130C8000AFF860B9607A60FB681B687B61012281
S1130C90BB689A401300DB431A007B691A407B68E7
S1130CA001211940BB6899400B001A43FB681A6084
S1130CB0C046BD4606B080BD80B584B000AFF860C4
S1130CC0B9607A60FB681B68BA68D2431A407B68D3
S1130CD01A43FB681A60C046BD4604B080BD80B5A7
S1130CE082B000AF786001E07B68DB697B68DA681A
S1130CF080235B001340F7D1C046BD4602B080BDDF
S1130D0080B588B000AFF860B9607A601A00FB1C47
S1130D101A707B68002B00D176E0FB1CFA1C127859
S1130D2003210A401A70FB681B683A4A1A40FB68A0
S1130D301A60F868FB1C1B781B021A00C0239B0076
S1130D401900FFF7B9FFBB68002B09D1FB68324AD1
S1130D50934205D1314B1800FFF7E8FC0300BB6058
S1130D6001235B42BB61FB681B680222134011D064
S1130D70FB1C1B78012B07D0022B08D0002B00D0C2
S1130D801AE0274BBB6117E0264BBB6114E0264BEE
S1130D90BB6111E0FB1C1B78012B07D0022B08D090
S1130DA0002B00D008E0214BBB6105E0204BBB6168
S1130DB002E0204BBB61C046FB1C1B781E4AD35C7F
S1130DC07B617B697A6853433B613B69002B1DD08F
S1130DD07B689B00BA68D21A3B69D318013B396916
S1130DE0180000F047FC0300013BFB61FB681B6833
S1130DF00222134004D0FB69002B01D10123FB61C3
S1130E00FA69FB681A6102E0C04600E0C046BD46CC
S1130E1008B080BDFFFCFFFF00A0004000B204004A
S1130E2040164000C0D8A7008050740180841E0082
S1130E3040548900002D31017818000080B582B03B
S1130E4000AF78600A00FB1C1A707868FB1C1B78E2
S1130E501A000021FFF712FFC046BD4602B080BD54
S1130E6080B582B000AF786039607B6800225A6335
S1130E70114A7B6811001800FFF7F4FE78683B689C
S1130E805B7801225340DBB21A000121FFF7F6FE22
S1130E903B6859683B689A683B681B7B7868FFF736
S1130EA02FFF3B681A787B6811001800FFF7C6FF14
S1130EB0C046BD4602B080BDFFFF010080B588B0CA
S1130EC000AF78607B68C74A934205D1C64BBB61CB
S1130ED0BB699B687B6102E004235B420FE27B6891
S1130EE09B6A3B613A69C023DB00134014D03A6922
S1130EF080239B00134003D0BB69FD225A7007E096
S1130F003A698023DB00134002D0BB69FE225A7089
S1130F10BB6909221A70DDE1BB691B78082B00D973
S1130F20C4E19A00B14BD3181B689F467B695B8868
S1130F301A00102313400AD07B691B881B0A9BB23A
S1130F401A0006231340F0221343FB610FE07B6970
S1130F501B881A00FE231340FB617B695B881A001F
S1130F600223134003D0FB6901221343FB61BB69D5
S1130F7001221A707B68FA695A627B6801225A60FE
S1130F80A8E13B69802213400ED07B6880211800C1
S1130F90FFF768FEBB69FF225A70BB6908221A700A
S1130FA07B6802225A608AE13B694022134000D1E7
S1130FB085E17B6840211800FFF754FE7B695B885C
S1130FC01A00102313400AD0BB6902221A707B69ED
S1130FD01B881A00FF231A407B685A626FE17B6901
S1130FE05B881A000223134010D0BB6907221A70D1
S1130FF0BB691B797A69DB00D31808331B88012B82
S113100000D05CE17B6808225A6058E1BB69052284
S11310101A7053E13B69802213400ED07B68802113
S11310201800FFF71FFEBB69FF225A70BB69082234
S11310301A707B6802225A6043E13B6940221340E4
S113104000D13EE17B6840211800FFF70BFE7B696D
S11310505B881A000223134003D0BB6903221A7071
S11310602CE1BB6905221A7028E17B695B881A00B0
S1131070102313400AD07B691B881B0A9BB21A00F9
S113108006231340F0221343FB6105E07B691B88B0
S11310901A00FE231340FB617B695B881A0004235A
S11310A0134003D0FB6901221343FB61BB69042293
S11310B01A707B6801225A607B68FA695A6209E1F6
S11310C03B69802213400ED07B6880211800FFF713
S11310D0C9FDBB69FF225A70BB6908221A707B687C
S11310E002225A60EFE03B694022134000D1EAE05B
S11310F07B6840211800FFF7B5FD7B695B881A0007
S11311000423134003D0BB6907221A70DBE0BB69D8
S113111005221A70D2E0BB695A88BB691B797969C8
S1131120DB00CB1808331B889A4224D3BB69002206
S11311305A80BB691B790133DAB2BB691A717B69C6
S11311405B881A000423134003D0BB6903221A707E
S1131150B4E07B695B881A000123134004D1BB69A6
S11311601B79012B00D8A8E0BB6908221A707B68A0
S113117002225A60AEE0BB691B797A69DB00D3189E
S113118004331A68BB695B88591C88B2B969488002
S1131190D3181B781A007B685A62BB6906221A703E
S11311A098E03B69802213400ED07B6880211800B0
S11311B0FFF758FDBB69FF225A70BB6908221A70F9
S11311C07B6802225A6080E03B694022134000D1D0
S11311D07BE07B6840211800FFF744FDBB690522D2
S11311E01A706BE000A00040AC0000207C180000E6
S11311F03B692022134000D169E0BB691B797A69FD
S1131200DB00D31808331B88FB607B68DA690B2387
S1131210FB181A70BB695B881A00FB68934211D9EA
S1131220BB691B797A69DB00D31804331A68BB697C
S11312305B88591C88B2B9694880D3180B22BA1844
S113124012781A70BB695B881A00FB6893420CD849
S1131250FB68012B02D17B6808225A60BB69082213
S11312601A707B6802225A6031E07B6804225A605B
S1131270FB68012B2BD9BB695B881A00FB68013B17
S11312809A4224D17B6808225A6020E03A6980237C
S11312905B0013401DD080235A007B6811001800A6
S11312A0FFF7E0FCBB6909221A7012E0BB69FB225C
S11312B05A70BB6909221A700CE0C0460FE6C0469A
S11312C008E0C04606E0C04604E0C04602E0C0466E
S11312D000E0C046BB691B78092B0BD17B68002258
S11312E05A63BB695B785BB2012B05D1BB690022F1
S11312F05A7001E0012302E0BB695B785BB218001D
S1131300BD4608B080BDC04680B584B000AF7860EB
S113131039607B68294A934207D1294BFB607B687B
S11313209B680122134006D002E004235B4241E0A3
S11313307B6820225A603B685B881A0002231340B2
S113134003D03B681B89002B09D03B685B881A00DB
S11313500423134006D03B681B8A002B02D10423CC
S11313605B4227E0FB6800221A70FB6801225A7076
S1131370FB6800225A80FB6800221A71FB683A68F5
S11313809A607B68C0225A607B681800FFF7A7FC4C
S11313900C4A7B6811001800FFF764FC7B685B6BE8
S11313A0FC22D2001A437B685A637B681800FFF75B
S11313B085FD03001800BD4604B080BD00A00040B8
S11313C0AC000020FFFF010080B582B000AF020036
S11313D03960FB1D1A70FB1D1B78002B0DD0FB1D03
S11313E01B78012B09D0FB1D1B78022B05D0FB1D9C
S11313F01B78032B01D0FB1D1B7801223B689A400C
S113140010000749FB1D1A781300DB009B189B0092
S1131410CB1814331860C046BD4602B080BDC04628
S11314200060004080B582B000AF02003960FB1D4F
S11314301A70FB1D1B78002B0DD0FB1D1B78012B94
S113144009D0FB1D1B78022B05D0FB1D1B78032B39
S113145001D0FB1D1B7801223B689A40100007490C
S1131460FB1D1A781300DB009B189B00CB1810336C
S11314701860C046BD4602B080BDC0460060004052
S113148080B588B000AF7860314B01211800FFF7B8
S1131490F5F87B681B682F4A934255D12E4BBB61EC
S11314A0BB6901211800FFF7E9F87B6818797B68AC
S11314B05B79190001230A22FFF722FB7B689879E4
S11314C07B68DB79190001230A22FFF719FB00234B
S11314D0FB6112E07B681A797B685B791900100064
S11314E0FFF7A0FF7B681A797B685B79190010000D
S11314F0FFF76AFFFB690133FB61FB69082BE9DD38
S11315007B681B7A1B0219007B681B6803220A4351
S11315109A6308217B1801221A707B1801225A70E1
S11315207B681A697B189A607B68DA687B185A6052
S11315307B681A7D7B181A737B681B687A18110004
S11315401800FFF78DFC00E0C046BD4608B080BD22
S11315504081040000A0004000B2040090B585B0B2
S113156000AF78603960144BBB600F23FC183A68F5
S11315707B6811001800FFF7C7FE0300237007E023
S11315800F23FC187B681800FFF798FC03002370F6
S11315900F23FB181B785BB2012B04D1BB685A1EC6
S11315A0BA60002BECD10F23FB181B785BB2180038
S11315B0BD4605B090BDC046E093040080B500AFC1
S11315C0034BDB6C1B0EDBB21800BD4680BDC0466E
S11315D0B081E00F90B583B000AF0C4B01221A64C8
S11315E0FC1DFFF7EBFF03002370FB1D1B78812B11
S11315F008D8074B074A1A60074B1A68064B074975
S11316000A401A60C046BD4603B090BD00000C40BD
S113161018600C4005000004E4800C40FFFFFFFE4E
S113162080B584B002AFFFF7D5FF104B012118003D
S1131630FFF724F80E4B01211800FFF71FF8FEF7FF
S113164089FDFB1D0E221A703B00FA1D12781A70D8
S11316503B0001225A703A1D390002230093130003
S11316600122D220FEF782FDF5E7C0460082040085
S113167040810400002243088B4274D303098B4247
S11316805FD3030A8B4244D3030B8B4228D3030C4E
S11316908B420DD3FF22090212BA030C8B4202D3F0
S11316A01212090265D0030B8B4219D300E0090A18
S11316B0C30B8B4201D3CB03C01A5241830B8B4221
S11316C001D38B03C01A5241430B8B4201D34B030A
S11316D0C01A5241030B8B4201D30B03C01A52416F
S11316E0C30A8B4201D3CB02C01A5241830A8B42F4
S11316F001D38B02C01A5241430A8B4201D34B02DD
S1131700C01A5241030A8B4201D30B02C01A524140
S1131710CDD2C3098B4201D3CB01C01A52418309F4
S11317208B4201D38B01C01A524143098B4201D32E
S11317304B01C01A524103098B4201D30B01C01A59
S11317405241C3088B4201D3CB00C01A52418308D3
S11317508B4201D38B00C01A524143088B4201D300
S11317604B00C01A5241411A00D201465241104660
S11317707047FFE701B5002000F006F802BDC0463F
S11317800029F7D076E770477047C046084B10B57C
S11317900400002B02D0002100E000BF054B1868B4
S11317A0836A002B00D09847200000F031F8C0462F
S11317B000000000A018000070B500260C4D0D4C70
S11317C0641BA410A64209D1002600F023F80A4D98
S11317D00A4C641BA410A64205D170BDB300EB589B
S11317E098470136EEE7B300EB5898470136F2E725
S11317F08800002088000020880000208C00002041
S113180003001218934200D1704719700133F9E7AD
S1131810FEE7C046F8B5C046F8BC08BC9E46704713
S1131820F8B5C046F8BC08BC9E46704704070000E3
S1131830AA060000B0060000A40600000407000089
S113184004070000B6060000C0060000CA06000037
S113185004070000D6060000220A000098080000D1
S1131860000900004C09000098090000220A000049
S1131870CA090000D4090000080911082C0F00004F
S1131880820F0000141000006A100000C010000055
S113189016110000A2110000F01100008C120000CB
S10B18A02800002000000000F4
S10B18A834E8FF7F0100000099
S11318B000A0004003070306010000000000000030
S11318C0486B01000000000000366E01008000003B
S11318D0809FD500006CDC020000000000000000C6
S11318E000000000000000000000000000000000F4
S11318F000000000000000000000000000000000E4
S113190000000000000000000000000000000000D3
S113191000000000000000000000000000000000C3
S113192000000000000000000000000000000000B3
S11319300000000000000000BD0000009500000051
S90301F506
